:1000000006308A00D82E0000FF00030E8301A100F5
:100010000A08A0008A010408A2007708A300780853
:10002000A4007908A5007A08A600831383128C30F7
:100030008400001C1D280C1832288B1E21280B1947
:100040003528220884002308F7002408F800250832
:10005000F9002608FA0020088A00210E8300FF0E0E
:100060007F0E09008A110A12F5288A110A125A28ED
:100070000A108A100A118207C034F934A434B0344B
:10008000993492348234F834803490340A108A10CF
:100090000A11820701340234043408341034203445
:1000A00040348034013402340434083410342034B1
:1000B0004034803406308100B40A0319B50A0B11AC
:1000C0000B118A110A1221280317151C6928013007
:1000D0006A280030003A031D7128031305107328A5
:1000E0000317031305148316051083120317951CB9
:1000F0007B2801307C280030003A031D832803133D
:100100008510852803170313851483168510831221
:100110000317151D8D2801308E280030003A031D6D
:100120009528031305119728031703130515831644
:10013000051183120317951D9F280130A028003058
:10014000003A031DA72803138511A92803170313D9
:1001500085158316851183120317151EB1280130EA
:10016000B2280030003A031DB92803130512BB283A
:100170000317031305168316051283120317951E22
:10018000C3280130C4280030003A031DCB280313D4
:100190008512CD2803170313851683168512831243
:1001A0000317151FD5280130D6280030003A031D4B
:1001B000DD2803130513DF28031703130517831620
:1001C000051383120317951FE7280130E828003034
:1001D000003A031DEF2803138513F12803170313B7
:1001E000851783168513831208008E01FF308F0058
:1001F00006308E00B60A3608313C031C01290C106B
:100200007F29B601331906290C107F2933182029BC
:10021000FF30AE00FE30B000B101B2010130AF00DE
:100220003108F800031918290310AF0DF80B142931
:100230002E08031795000313642033140C107F2934
:100240003108073C031C6929B208031D312901301C
:10025000AF003108F800031931290310AF0DF80B76
:100260002D290310AF0C2F083004AE002E08031701
:10027000950003136420B20A32083102031868297A
:100280000310B00DB10AB2013108073C03185E2912
:10029000FF30AE002E080317950003136420FE30D4
:1002A000B000B101B2010130AF003108F80003190C
:1002B0005D290310AF0DF80B592968290130AF00F3
:1002C0003108F800031968290310AF0DF80B6429F1
:1002D0007E29B101B201FE30B0000130AF0031081B
:1002E000F800031977290310AF0DF80B7329FF30BD
:1002F000AE002E0803179500031364200C100C1099
:100300008A110A1221280B138B138B1B8429831645
:100310000108C039023881000630831281000B11B8
:100320008A110A129C2F0B138B138B1B94293530C7
:1003300090008E01FF308F0006308E000C108A1165
:100340000A129D2F0830F80000008711AD112D080A
:10035000831687000000D80D83120712031CB629EC
:100360002D162D0883168700BA2983122D122D0809
:100370008316870000008312AD152D0883168700B1
:100380008312871DC129F80BA42900008711AD1124
:100390002D0883168700000083122D162D08831662
:1003A0008700000000008312AD152D08831687001A
:1003B0008312871DD929F8010000071A78148711C4
:1003C000AD112D0883168700831207122D122D08F8
:1003D00083168700831208002D162D0883168700C8
:1003E00000008312AD152D088316870000008312CC
:1003F00007122D122D088316870000008312871123
:10040000AD112D0883168700D030D8008312A221A9
:1004100083165608D8008312A22183165708D800E5
:100420008312A2212D122D0883168700000083124B
:10043000AD152D08831687008312871D1D2A000025
:10044000212A00002D162D08831687000000831234
:100450000800B801B901BA010130BE00BB00BC0000
:100460002630BD008316D601831238088316D700C4
:100470008312EC2101308316D600831239088316CB
:10048000D7008312EC2102308316D60083123A087B
:100490008316D7008312EC2103308316D600831213
:1004A0003E088316D7008312EC2104308316D60051
:1004B00083123B088316D7008312EC210530831684
:1004C000D60083123C088316D7008312EC21063035
:1004D0008316D60083123D088316D7008312EC21C1
:1004E0008A110A129E2F08308316D9007708DA0085
:1004F00083122D162D088316870000008312AD1578
:100500002D08831687008312871D842A071A031477
:10051000071E0310F80D0000AD112D08831687008B
:10052000831287118316D90B782A83122D162D0872
:100530008316870000008312071283165A080319D6
:10054000A62A83122D122D0883168700000083121D
:10055000AD152D08831687008312871DAD2A000074
:100560008711AD112D088316870000008312071232
:100570002D122D0883168700831208002D162D08D2
:100580008316870000008312AD152D08831687009F
:100590000000831207122D122D0883168700000019
:1005A00083128711AD112D0883168700D030D80033
:1005B0008312A2218316D8018312A2212D162D08A1
:1005C0008316870000008312AD152D08831687005F
:1005D00000008312871DEA2A07122D122D088316A8
:1005E0008700000083128711AD112D088316870044
:1005F000D130D8008312A2210130F700732278088D
:10060000B8000130F70073227808B9000130F70014
:1006100073227808BA000130F70073227808BE0010
:100620000130F70073227808BB000130F700732215
:100630007808BC00F70173227808BD002D122D0840
:100640008316870000008312AD152D0883168700DE
:100650008312871D292B00002D2B00002D162D083D
:1006600083168700000083123B0EF7000F30F7055A
:1006700077083820F8008316A80083123B080F394A
:1006800038207F398316A90083123C0EF7000F3003
:10069000F70577083820F8008316AA0083123C0873
:1006A0000F3938207F398316AB00A430AC00C0303E
:1006B000AD0083123D0EF7000F30F70577083820A4
:1006C000F8008316AE0083123D080F393820F80079
:1006D0008316AF0083123E0B742BA7308316B6002F
:1006E000AB30B7007D2B8312FF308316B700831227
:1006F0003E083820F8008316B600831238080F39F8
:100700003820F800CB00380EF7000F30F7057708D7
:100710003820F800CC0039080F3938207F39CD0057
:10072000390EF7000F30F70577083820F800CE00B3
:100730003A080F3938207F39CF003A0EF7000F30D2
:10074000F70577083820F800D000FF30D100D2003C
:100750000800031791011108073C031CCE2B901FC2
:10076000B32B0130B42B0030003A031DBB2B031315
:100770000810BD2B03170313081483160810081163
:1007800083120811C32BC42BC52B831608118312A7
:10079000081503100317900D910AAB2B03130800E3
:1007A00083165B08FA005A080319DB03DA03DC003E
:1007B0007A08DD00DC08031DE02BDD080319D82CC6
:1007C0005808F8005908FA007808DC007A08DD00BB
:1007D0005D08DF005C08DE00E40164080F3C031CD8
:1007E000D72C6408073C031C282C64085E0784008F
:1007F00083135F1883170008E801E701E601E500AD
:10080000E800E501E601E701640883124620F800EC
:100810008316ED01EC01EB017808EA006B08ED00AE
:100820006A08EC00EA01EB01F7016B08F8006C08BC
:10083000F9006D08FA0077086504E000780866049E
:10084000E10079086704E2007A086804E300522CAA
:1008500064085E07840083135F1883170008E801AB
:10086000E701E601E5006708E8006608E7006508BB
:10087000E600E501640883124620F8008316ED01C6
:10088000EC01EB017808EA00F700F901770865044C
:10089000E0006B086604E10079086704E2006D0877
:1008A0006804E3006308E8006208E7006108E60006
:1008B0006008E500F801F901FA016508EC00660836
:1008C000831203179100831603136708831203171B
:1008D0009200831603136808831203179300940190
:1008E000F801F901FA01110883160313EB006708F8
:1008F00083120317910083160313680883120317EA
:10090000920093019401F801F901FA01110883168C
:100910000313EA0068088312031791009201930100
:100920009401F801F901FA01110883160313E90093
:1009300069088312031790000313A92383166A081A
:100940008312031790000313A92383166B088312E5
:10095000031790000313A92383166C08831203174F
:1009600090000313A9238316081283120812B82CCF
:10097000B92CBA2C8316081283120816023083167B
:10098000E500F830E6000830E602031CD32CE63020
:10099000840083130310800C00080319D32CD12C7E
:1009A0000000800BD02CE50BC12CE40AED2BD12BE1
:1009B000831208008316D6080319112D8312BE2254
:1009C0008316D7015708073C031C052D43305707F2
:1009D000F800FA010318FA0A7808D8007A08D90052
:1009E000073083125307F800831657087802A03E99
:1009F000840083130008DA00580884008313591810
:100A000083175A088000D70AE22CD9014330D80056
:100A10005508DB005408DA008312D0238316D6036E
:100A2000DB2C83128A110A12D32FD7308400831350
:100A300000080319282D0230F800F701F70B1E2DCE
:100A4000F80B1D2D9730F700F70B242D800B1B2D75
:100A50000800F701F8018316580803105918F70722
:100A6000F70CF80CD918F707F70CF80C5919F70719
:100A7000F70CF80CD919F707F70CF80C591AF70707
:100A8000F70CF80CD91AF707F70CF80C591BF707F5
:100A9000F70CF80CD91BF707F70CF80C83120800B9
:100AA000380EF7000F30F70577088316D700D80007
:100AB0000A30D9008312292578088316D6008312BC
:100AC00038080F39831656078312B800390EF7001D
:100AD0000F30F70577088316D700D8000A30D90001
:100AE0008312292578088316D600831239080F3916
:100AF000831656078312B9003A0EF7000F30F70538
:100B000077088316D700D8000A30D9008312292528
:100B100078088316D60083123A080F3983165607D1
:100B20008312BA003B0EF7000F30F70577088316E3
:100B3000D700D8000A30D9008312292578088316F7
:100B4000D60083123B080F39831656078312BB0069
:100B50003C0EF7000F30F70577088316D700D80052
:100B60000A30D9008312292578088316D60083120B
:100B70003C080F39831656078312BC003D0EF70060
:100B80000F30F70577088316D700D8000A30D90050
:100B90008312292578088316D60083123D080F3961
:100BA000831656078312BD00080083165808F80103
:100BB00057020318DE2D5708F700EA2DF701083019
:100BC000D900D70DF70D580877020318F700F80D74
:100BD000D90BE12D8312080038088316D7000A309C
:100BE000D8008312D525780E8316D600F030D605AE
:100BF000831238088316D7000A30D8008312D5250F
:100C00007708831656078312B80039088316D70071
:100C10000A30D8008312D525780E8316D600F0301E
:100C2000D605831239088316D7000A30D8008312FC
:100C3000D5257708831656078312B9003A0883161C
:100C4000D7000A30D8008312D525780E8316D60037
:100C5000F030D60583123A088316D7000A30D80040
:100C60008312D5257708831656078312BA003B08EE
:100C70008316D7000A30D8008312D525780E831644
:100C8000D600F030D60583123B088316D7000A3011
:100C9000D8008312D5257708831656078312BB0028
:100CA0003C088316D7000A30D8008312D525780E69
:100CB0008316D600F030D60583123C088316D70081
:100CC0000A30D8008312D525770883165607831279
:100CD000BC003D088316D7000A30D8008312D52502
:100CE000780E8316D600F030D60583123D088316A1
:100CF000D7000A30D8008312D52577088316560707
:100D00008312BD000800BE22502538081B3C031981
:100D1000992E38081C3C0319992E38081D3C0319DC
:100D2000992E38081E3C0319992E38081F3C031DC4
:100D3000D52E3F083902031DD52E40083A02031D67
:100D4000D52EFE3003178D0083168C130C148312DE
:100D50000C080313D400FF3003178D0083168C1387
:100D60000C1483120C080313D500D5080319D52ED3
:100D7000D408031DBE2E5508B802C02E5508B8076A
:100D8000EC258316D601831238088316D700831208
:100D9000EC2190308316D400FA30D7008312152549
:100DA0008316D40BCC2E8312BE228A110A12DC2F9A
:100DB00003081F398300713083168F000F08FF303E
:100DC0008312AD00FF30AE00AF01FE30B000B101C4
:100DD000B2013310B501B401B601B701C2011E3032
:100DE000C100D301B31033110130D400D5018316F3
:100DF00003170908C039890003131F129F1200301E
:100E00000317880083128701880189018313031364
:100E1000A701A801FF30C300C400C500C600C70079
:100E2000C800C900CA00CB00CC00CD00CE00CF0066
:100E3000D000D100D2008316A000A100A200A30020
:100E4000A400A500A600A700A800A900AA00AB0066
:100E5000AC00AD00AE00AF00B000B1008730B20012
:100E60008B30B300E330B400FF30B500C630B600BD
:100E7000C830B700FF30B800B9008730BA00AF30D3
:100E8000BB00A330BC00AB30BD00FF30BE00A130C2
:100E9000BF00FB30C000AB30C1008B30C200FF3060
:100EA000C3008730C4008B30C500E330C600A330D8
:100EB000C700AB30C8009030C900FF30CA00CB007B
:100EC000CC00CD00CE00CF00D000D1000030850096
:100ED000FF30860000308800081083120810831647
:100EE000081183120811831608128312081683163C
:100EF000051083120514831685108312851083163E
:100F0000051183120511831685118312851183162D
:100F10000512831205128316851283128512831619
:100F20000513831205138316851383128517831601
:100F300008138312081383299329292AFE300317E3
:100F40008D0083168C130C1483120C088316031364
:100F5000D200FF30831203178D0083168C130C14FC
:100F600083120C0883160313D300D208031DC12F6C
:100F7000D3080319C02F5308003C8312B70083160F
:100F8000C52F53088312B7008316C03083128B0419
:100F900042088316D500831241088316D40001301D
:100FA000D6008312DA2CD30A53082A3C031CD3013F
:100FB0008A1500288A11832EB31CE12F8A15292C4B
:060FC0008A11C82F630036
:101000008316061483120618242C02308316D60089
:10101000FA30D7008A11831215258A158316D60B4C
:101020000828061483120618242C83160C10831229
:10103000B501B4010B11063081008B16C0308B0452
:10104000831606148312061C20288B12331D2C28AD
:1010500083160C142E28831283160C108312340866
:10106000F8003508F90079088316D5007808D4000F
:1010700055080B3C031CD72A031D42285408B83CD2
:10108000031CD72A8312C2010F30C1008A115025D8
:101090008A15B801B901BA010130BB00BC001A3091
:1010A000BD000130BE00831686178312861FB90A61
:1010B00039083B3C031CB9018A11EC258A15FF3025
:1010C000CD00CE008316D9014330D80083124208E8
:1010D0008316DB00831241088316DA008A1183121B
:1010E000D0238A1539080F398A1138208A157F399B
:1010F000CD00390EF7000F30F70577088A11382038
:101100008A15F800CE008316D9014330D800831227
:1011100042088316DB00831241088316DA008A1125
:101120008312D0238A158A1150258A158316061436
:1011300083120618AD2814308316D7008A11831243
:1011400015258A158316061483120618AC288316F3
:1011500006148312061CA728AE2853288316861768
:101160008312861FBA0A3A08173C031CBA018A1177
:10117000EC258A15FF30CF00D0008316D90143300B
:10118000D800831242088316DB00831241088316BD
:10119000DA008A118312D0238A153A080F398A118E
:1011A00038208A157F39CF003A0EF7000F30F70547
:1011B00077088A1138208A15F800D0008316D901E3
:1011C0004330D800831242088316DB0083124108A3
:1011D0008316DA008A118312D0238A158A115025CA
:1011E0008A158316061483120618082914308316EC
:1011F000D7008A11831215258A15831606148312C7
:1012000006180729831606148312061C02290929C9
:10121000AE28831686178312861FBB0A3B081F3C25
:10122000031814290130BB008A11EC258A15FF3000
:10123000C900CA008316D9014330D800831242087E
:101240008316DB00831241088316DA008A118312A9
:10125000D0238A153B080F398A1138208A157F3927
:10126000C9003B0EF7000F30F70577088A113820C8
:101270008A15F800CA008316D9014330D8008312BA
:1012800042088316DB00831241088316DA008A11B4
:101290008312D0238A158A1150258A1583160614C5
:1012A00083120618652914308316D7008A11831219
:1012B00015258A15831606148312061864298316C9
:1012C00006148312061C5F296629092983168617CE
:1012D0008312861FBC0A3C080C3C0318712901309C
:1012E000BC008A11EC258A15FF30C700C8008316A0
:1012F000D9014330D800831242088316DB008312E1
:1013000041088316DA008A118312D0238A153C081B
:101310000F398A1138208A157F39C7003C0EF70033
:101320000F30F70577088A1138208A15F800C800B1
:101330008316D9014330D800831242088316DB009C
:10134000831241088316DA008A118312D0238A158A
:101350008A1150258A158316061483120618C2298D
:1013600014308316D7008A11831215258A15831627
:10137000061483120618C129831606148312061C4C
:10138000BC29C3296629831686178312861FBD0AC6
:101390003D08323C031CBD018A11EC258A15FF3043
:1013A000C300C4008316D9014330D8008312420819
:1013B0008316DB00831241088316DA008A11831238
:1013C000D0238A153D080F398A1138208A15F80074
:1013D000C3003D0EF7000F30F70577088A1138205B
:1013E0008A15F800C4008316D9014330D80083124F
:1013F00042088316DB00831241088316DA008A1143
:101400008312D0238A158A1150258A158316061453
:10141000831206181D2A14308316D7008A118312EE
:1014200015258A1583160614831206181C2A83169E
:1014300006148312061C172A1E2AC3298316861730
:101440008312861FBE0A3E08073C0318292A013072
:10145000BE008A11EC258A15FF30C500C600831630
:10146000D9014330D800831242088316DB0083126F
:1014700041088316DA008A118312D0238A153E0BA5
:10148000462AA730C600AB30C5004E2AC030C60081
:101490003E088A1138208A15F800C5008316D90144
:1014A0004330D800831242088316DB0083124108C0
:1014B0008316DA008A118312D0238A158A115025E7
:1014C0008A158316061483120618782A1430831698
:1014D000D7008A11831215258A15831606148312E4
:1014E0000618772A831606148312061C722A792A94
:1014F0001E2A3908BF003A08C0008A11EC258A1557
:101500008316D601831238088316D7008A118312F6
:10151000EC218A1501308316D60083123908831610
:10152000D7008A118312EC218A1502308316D60067
:1015300083123A088316D7008A118312EC218A1588
:1015400003308316D60083123E088316D7008A1113
:101550008312EC218A1504308316D60083123B08CF
:101560008316D7008A118312EC218A150530831661
:10157000D60083123C088316D7008A118312EC210F
:101580008A1506308316D60083123D088316D700CD
:101590008A118312EC218A15C2011E30C100C830A5
:1015A0008316D7008A11831215258A1583165508CC
:1015B0000A3C0318AF2BFF3A031DE22A5408B83C3B
:1015C0000318AF2B5508133C031CAF2B031DEC2A4B
:1015D0005408883C031CAF2B8312C2010F30C1009A
:1015E000E230B700B71FF62A0030F72A0130D400E6
:1015F0003708B71FFD2A3708003CD5008316861729
:101600008312861FB70AB71B0B2B37081D3C031824
:101610000B2BE230B700B71F0F2B0030102B01301F
:10162000D4003708B71F162B3708003CD500FF3011
:10163000D000D100D2008316D9014330D8008312E4
:1016400042088316DB00831241088316DA008A11F0
:101650008312D0238A1555088316D7000A30D80084
:101660008A118312D5258A1577088A1138208A15A0
:10167000F800D00055088316D7000A30D8008A1128
:101680008312D5258A1578088A1138208A15F80022
:10169000D100D408031D4F2BBF30D200512BFF3097
:1016A000D2008316D9014330D80083124208831632
:1016B000DB00831241088316DA008A118312D023DB
:1016C0008A158316061483120618782B1430831695
:1016D000D7008A11831215258A15831606148312E2
:1016E0000618772B831606148312061C722B792B8F
:1016F000FE2A0B08F7008B13FE3003178D0003132F
:10170000540803178C0083168C130C1555308D006C
:10171000AA308D008C148C188B2B0C117708831237
:1017200003138B040B08F7008B13FF3003178D0096
:101730000313550803178C0083168C130C155530B2
:101740008D00AA308D008C148C18A42B0C117708F6
:10175000831203138B04C2011E30C1008316550887
:10176000123C0318CF2BFF3A031DBA2B5408883CB8
:101770000318CF2B55081B3C031CCF2B031DC42B78
:101780005408583C031CCF2B04308312B306331D7E
:10179000CD2B83160C14CF2B831283160C105508F7
:1017A0001A3C0318252CFF3A031DDA2B5408583C29
:1017B0000318252C02308312B306B31C112C831698
:1017C00008138312081702308316D600FA30D700A8
:1017D0008A11831215258A158316D60BE62B08135A
:1017E0008312081302308316D600FA30D7008A110C
:1017F000831215258A158316D60BF52B0813831231
:10180000081702308316D600FA30D7008A118312E7
:1018100015258A158316D60B042C0813831208137A
:10182000242C831608138312081708308316D60059
:10183000FA30D7008A11831215258A158316D60B24
:10184000182C081383120813831683128A110A12A4
:10185000DA2F8A11BE228A158A1150258A15B808F6
:101860000319412C380B352C412C3808023C031944
:10187000412C3808033C0319412C3808043C031D53
:10188000BE2CB908031DBE2C3A080C3C03194C2C85
:101890003A08123C031DBE2C04308316D600FA30E1
:1018A000D7008A11831215258A158316D60B4F2C63
:1018B000D4015408053C031CBD2C051083120514EB
:1018C000831685108312851483160511831205155E
:1018D000831685118312851583160512831205164A
:1018E0008316851283128516831605138312051736
:1018F000831685138312851783160813831208171E
:1019000002308316D600FA30D7008A1183121525CB
:101910008A158316D60B832C0510831205108316A7
:101920008510831285108316051183120511831605
:1019300085118312851183160512831205128316F1
:1019400085128312851283160513831205138316DD
:10195000851383128513831608138312081302302C
:101960008316D600FA30D7008A11831215258A15FE
:101970008316D60BB22CD40A592C8312B80803193B
:10198000D02C380BC42CD02C3808023C0319D02C96
:101990003808033C0319D02C3808043C031D552D8E
:1019A000B908031D552D3A08053C0318DB2C3A08ED
:1019B0000B3C0318E32C3A080C3C0318552D3A084D
:1019C000113C031C552D04308316D600FA30D70085
:1019D0008A11831215258A158316D60BE62CD5019C
:1019E0005508023C031C542D051083120514831660
:1019F000851083128514831605118312051583162D
:101A00008511831285158316051283120516831618
:101A10008512831285168316051383120517831604
:101A20008513831285178316081383120817023053
:101A30008316D600FA30D7008A11831215258A152D
:101A40008316D60B1A2D05108312051083168510E8
:101A500083128510831605118312051183168511D3
:101A600083128511831605128312051283168512BF
:101A700083128512831605138312051383168513AB
:101A800083128513831608138312081302308316FA
:101A9000D600FA30D7008A11831215258A158316CD
:101AA000D60B492DD50AF02C83128A11EC258A1504
:101AB0008316051083120514831685108312851072
:101AC0008316051183120511831685118312851162
:101AD000831605128312051283168512831285124E
:101AE0008316051383120513831685138312851736
:0E1AF00083160813831208138A110A12E02FBE
:0443FC0000001500A8
:04400E00E42FFF3F5D
:00000001FF
;PIC16F887
;CRC=6722  CREATED="21-Feb-26 09:29"
