:1000000006308A00D62E0000FF00030E8301A100F7
:100010000A08A0008A010408A2007708A300780853
:10002000A4007908A5007A08A600831383128C30F7
:100030008400001C1D280C1832288B1E21280B1947
:100040003528220884002308F7002408F800250832
:10005000F9002608FA0020088A00210E8300FF0E0E
:100060007F0E09008A110A12F5288A110A125A28ED
:100070000A108A100A118207C034F934A434B0344B
:10008000993492348234F834803490340A108A10CF
:100090000A11820701340234043408341034203445
:1000A00040348034013402340434083410342034B1
:1000B0004034803406308100B40A0319B50A0B11AC
:1000C0000B118A110A1221280317151C6928013007
:1000D0006A280030003A031D7128031305107328A5
:1000E0000317031305148316051083120317951CB9
:1000F0007B2801307C280030003A031D832803133D
:100100008510852803170313851483168510831221
:100110000317151D8D2801308E280030003A031D6D
:100120009528031305119728031703130515831644
:10013000051183120317951D9F280130A028003058
:10014000003A031DA72803138511A92803170313D9
:1001500085158316851183120317151EB1280130EA
:10016000B2280030003A031DB92803130512BB283A
:100170000317031305168316051283120317951E22
:10018000C3280130C4280030003A031DCB280313D4
:100190008512CD2803170313851683168512831243
:1001A0000317151FD5280130D6280030003A031D4B
:1001B000DD2803130513DF28031703130517831620
:1001C000051383120317951FE7280130E828003034
:1001D000003A031DEF2803138513F12803170313B7
:1001E000851783168513831208008E01FF308F0058
:1001F00006308E00B60A3608313C031C01290C106B
:100200007F29B601331906290C107F2933182029BC
:10021000FF30AE00FE30B000B101B2010130AF00DE
:100220003108F800031918290310AF0DF80B142931
:100230002E08031795000313642033140C107F2934
:100240003108073C031C6929B208031D312901301C
:10025000AF003108F800031931290310AF0DF80B76
:100260002D290310AF0C2F083004AE002E08031701
:10027000950003136420B20A32083102031868297A
:100280000310B00DB10AB2013108073C03185E2912
:10029000FF30AE002E080317950003136420FE30D4
:1002A000B000B101B2010130AF003108F80003190C
:1002B0005D290310AF0DF80B592968290130AF00F3
:1002C0003108F800031968290310AF0DF80B6429F1
:1002D0007E29B101B201FE30B0000130AF0031081B
:1002E000F800031977290310AF0DF80B7329FF30BD
:1002F000AE002E0803179500031364200C100C1099
:100300008A110A1221280B138B138B1B8429831645
:100310000108C039023881000630831281000B11B8
:100320008A110A129A2F0B138B138B1B94293530C9
:1003300090008E01FF308F0006308E000C108A1165
:100340000A129B2F0830F80000008711AD112D080C
:10035000831687000000D80D83120712031CB629EC
:100360002D162D0883168700BA2983122D122D0809
:100370008316870000008312AD152D0883168700B1
:100380008312871DC129F80BA42900008711AD1124
:100390002D0883168700000083122D162D08831662
:1003A0008700000000008312AD152D08831687001A
:1003B0008312871DD929F8010000071A78148711C4
:1003C000AD112D0883168700831207122D122D08F8
:1003D00083168700831208002D162D0883168700C8
:1003E00000008312AD152D088316870000008312CC
:1003F00007122D122D088316870000008312871123
:10040000AD112D0883168700D030D8008312A221A9
:1004100083165608D8008312A22183165708D800E5
:100420008312A2212D122D0883168700000083124B
:10043000AD152D08831687008312871D1D2A000025
:10044000212A00002D162D08831687000000831234
:100450000800B801B901BA010130BE00BB00BC0000
:100460002630BD008316D601831238088316D700C4
:100470008312EC2101308316D600831239088316CB
:10048000D7008312EC2102308316D60083123A087B
:100490008316D7008312EC2103308316D600831213
:1004A0003E088316D7008312EC2104308316D60051
:1004B00083123B088316D7008312EC210530831684
:1004C000D60083123C088316D7008312EC21063035
:1004D0008316D60083123D088316D7008312EC21C1
:1004E0000800D7308400831300080319842A0230DF
:1004F000F800F701F70B7A2AF80B792A9730F70002
:10050000F70B802A800B772A080008308316D90061
:100510007708DA0083122D162D0883168700000055
:100520008312AD152D08831687008312871D962A26
:10053000071A0314071E0310F80D0000AD112D0853
:1005400083168700831287118316D90B8A2A831298
:100550002D162D08831687000000831207128316BC
:100560005A080319B82A83122D122D088316870002
:1005700000008312AD152D08831687008312871D96
:10058000BF2A00008711AD112D08831687000000D7
:10059000831207122D122D0883168700831208007C
:1005A0002D162D088316870000008312AD152D0827
:1005B000831687000000831207122D122D08831660
:1005C0008700000083128711AD112D088316870064
:1005D000D030D8008312A2218316D8018312A22121
:1005E0002D162D088316870000008312AD152D08E7
:1005F0008316870000008312871DFC2A07122D1224
:100600002D0883168700000083128711AD112D0875
:1006100083168700D130D8008312A2210130F70061
:1006200085227808B8000130F70085227808B900E3
:100630000130F70085227808BA000130F7008522E2
:100640007808BE000130F70085227808BB00013031
:10065000F70085227808BC00F70185227808BD00E4
:100660002D122D088316870000008312AD152D086A
:10067000831687008312871D3B2B00003F2B000051
:100680002D162D0883168700000083123B0EF700FD
:100690000F30F70577083820F8008316A80083127A
:1006A0003B080F3938207F398316A90083123C0E8E
:1006B000F7000F30F70577083820F8008316AA00F6
:1006C00083123C080F3938207F398316AB00A430E1
:1006D000AC00C030AD0083123D0EF7000F30F705BF
:1006E00077083820F8008316AE0083123D080F39D2
:1006F0003820F8008316AF0083123E0B862BA730FC
:100700008316B600AB30B7008F2B8312FF308316F1
:10071000B70083123E083820F8008316B600831213
:1007200038080F393820F800CB00380EF7000F30AA
:10073000F70577083820F800CC0039080F39382041
:100740007F39CD00390EF7000F30F70577083820D4
:10075000F800CE003A080F3938207F39CF003A0E22
:10076000F7000F30F70577083820F800D000FF3089
:10077000D100D2000800031791011108073C031CA7
:10078000E02B901FC52B0130C62B0030003A031D13
:10079000CD2B03130810CF2B031703130814831654
:1007A0000810081183120811D52BD62BD72B8316CE
:1007B00008118312081503100317900D910ABD2B21
:1007C0000313080083165B08FA005A080319DB03B9
:1007D000DA03DC007A08DD00DC08031DF22BDD08FB
:1007E0000319EA2C5808F8005908FA007808DC00C8
:1007F0007A08DD005D08DF005C08DE00E4016408C3
:100800000F3C031CE92C6408073C031C3A2C6408C9
:100810005E07840083135F1883170008E801E7016F
:10082000E601E500E800E501E601E701640883125E
:100830004620F8008316ED01EC01EB017808EA0090
:100840006B08ED006A08EC00EA01EB01F7016B08A8
:10085000F8006C08F9006D08FA0077086504E000FC
:1008600078086604E10079086704E2007A08680401
:10087000E300642C64085E07840083135F18831709
:100880000008E801E701E601E5006708E8006608FE
:10089000E7006508E600E501640883124620F800D9
:1008A0008316ED01EC01EB017808EA00F700F9018D
:1008B00077086504E0006B086604E10079086704C6
:1008C000E2006D086804E3006308E8006208E700DE
:1008D0006108E6006008E500F801F901FA01650821
:1008E000EC00660883120317910083160313670850
:1008F00083120317920083160313680883120317E9
:1009000093009401F801F901FA0111088316031309
:10091000EB0067088312031791008316031368081E
:1009200083120317920093019401F801F901FA016F
:10093000110883160313EA00680883120317910055
:10094000920193019401F801F901FA01110883164B
:100950000313E90069088312031790000313BB23F4
:1009600083166A088312031790000313BB238316B0
:100970006B088312031790000313BB2383166C08C4
:100980008312031790000313BB23831608128312EC
:100990000812CA2CCB2CCC2C8316081283120816F2
:1009A00002308316E500F830E6000830E602031C4A
:1009B000E52CE630840083130310800C0008031933
:1009C000E52CE32C0000800BE22CE50BD32CE40A91
:1009D000FF2BE32B831208008316D6080319232D5F
:1009E0008312D0228316D7015708073C031C172D0A
:1009F00043305707F800FA010318FA0A7808D800BC
:100A00007A08D900073083125307F8008316570875
:100A10007802A03E840083130008DA00580884009E
:100A20008313591883175A088000D70AF42CD90168
:100A30004330D8005508DB005408DA008312E22363
:100A40008316D603ED2C83128A110A12DD2FF701CB
:100A5000F8018316580803105918F707F70CF80C1B
:100A6000D918F707F70CF80C5919F707F70CF80C19
:100A7000D919F707F70CF80C591AF707F70CF80C07
:100A8000D91AF707F70CF80C591BF707F70CF80CF5
:100A9000D91BF707F70CF80C83120800380EF70083
:100AA0000F30F70577088316D700D8000A30D90031
:100AB0008312272578088316D600831238080F3949
:100AC000831656078312B800390EF7000F30F7056A
:100AD00077088316D700D8000A30D900831227255B
:100AE00078088316D600831239080F398316560703
:100AF0008312B9003A0EF7000F30F7057708831616
:100B0000D700D8000A30D900831227257808831629
:100B1000D60083123A080F39831656078312BA009B
:100B20003B0EF7000F30F70577088316D700D80083
:100B30000A30D9008312272578088316D60083123D
:100B40003B080F39831656078312BB003C0EF70093
:100B50000F30F70577088316D700D8000A30D90080
:100B60008312272578088316D60083123C080F3994
:100B7000831656078312BC003D0EF7000F30F705B1
:100B800077088316D700D8000A30D90083122725AA
:100B900078088316D60083123D080F39831656074E
:100BA0008312BD00080083165808F8015702031885
:100BB000DC2D5708F700E82DF7010830D900D70DD4
:100BC000F70D580877020318F700F80DD90BDF2D41
:100BD0008312080038088316D7000A30D800831221
:100BE000D325780E8316D600F030D6058312380848
:100BF0008316D7000A30D8008312D32577088316CE
:100C000056078312B80039088316D7000A30D80077
:100C10008312D325780E8316D600F030D6058312C2
:100C200039088316D7000A30D8008312D3257708F5
:100C3000831656078312B9003A088316D7000A3084
:100C4000D8008312D325780E8316D600F030D6054F
:100C500083123A088316D7000A30D8008312D325AE
:100C60007708831656078312BA003B088316D7000D
:100C70000A30D8008312D325780E8316D600F030C0
:100C8000D60583123B088316D7000A30D80083129A
:100C9000D3257708831656078312BB003C088316BA
:100CA000D7000A30D8008312D325780E8316D600D9
:100CB000F030D60583123C088316D7000A30D800DE
:100CC0008312D3257708831656078312BC003D088C
:100CD0008316D7000A30D8008312D325780E8316E6
:100CE000D600F030D60583123D088316D7000A30AF
:100CF000D8008312D3257708831656078312BD00C8
:100D00000800D0224E2538081B3C0319972E3808BE
:100D10001C3C0319972E38081D3C0319972E3808E0
:100D20001E3C0319972E38081F3C031DD32E3F0885
:100D30003902031DD32E40083A02031DD32EFE3084
:100D400003178D0083168C130C1483120C080313E5
:100D5000D400FF3003178D0083168C130C148312FC
:100D60000C080313D500D5080319D32ED408031D8E
:100D7000BC2E5508B802BE2E5508B807EA258316C2
:100D8000D601831238088316D7008312EC219030E5
:100D90008316D400FA30D700831271228316D40B45
:100DA000CA2E8312D0228A110A12E62F03081F3995
:100DB0008300713083168F000F08FF308312AD005F
:100DC000FF30AE00AF01FE30B000B101B201331010
:100DD000B501B401B601B701C2011E30C100D30193
:100DE000B31033110130D400D5018316031709085D
:100DF000C039890003131F129F12003003178800A7
:100E0000831287018801890183130313A701A801B5
:100E1000FF30C300C400C500C600C700C800C90039
:100E2000CA00CB00CC00CD00CE00CF00D000D10056
:100E3000D2008316A000A100A200A300A400A50078
:100E4000A600A700A800A900AA00AB00AC00AD0056
:100E5000AE00AF00B000B1008730B2008B30B300FD
:100E6000E330B400FF30B500C630B600C830B7007C
:100E7000FF30B800B9008730BA00AF30BB00A330F4
:100E8000BC00AB30BD00FF30BE00A130BF00FB3066
:100E9000C000AB30C1008B30C200FF30C3008730D0
:100EA000C4008B30C500E330C600A330C700AB30B0
:100EB000C8009030C900FF30CA00CB00CC00CD0084
:100EC000CE00CF00D000D10000308500FF3086007A
:100ED000003088000810831208108316081183124E
:100EE0000811831608128312081683160510831240
:100EF000051483168510831285108316051183123D
:100F0000051183168511831285118316051283122C
:100F10000512831685128312851283160513831218
:100F200005138316851383128517831608138312FE
:100F3000081383299329292250308316D400FA30CC
:100F4000D700831271228316D40B9F2F831229227C
:100F5000FE3003178D0083168C130C1483120C08BB
:100F600083160313D200FF30831203178D008316FC
:100F70008C130C1483120C0883160313D300D208AD
:100F8000031DCB2FD3080319CA2F5308003C83122B
:100F9000B7008316CF2F53088312B7008316C030D3
:100FA00083128B0442088316D500831241088316EE
:100FB000D4000130D6008312EC2CD30A53082A3C0B
:100FC000031CD3018A1500288A11812EB31CEB2F34
:0A0FD0008A15552C8A11D22F6300F8
:101000008316061483120618502C02308316D6005D
:10101000FA30D7008A11831271228A158316D60BF3
:101020000828061483120618502C83160C108312FD
:10103000B501B4010B11063081008B16C0308B0452
:10104000831606148312061C20288B12331D2C28AD
:1010500083160C142E28831283160C108312340866
:10106000F8003508F90079088316D5007808D4000F
:1010700055080B3C031CE32A031D42285408B83CC6
:10108000031CE32A8312C2010F30C1008A114E25CE
:101090008A15B801B901BA010130BB00BC001A3091
:1010A000BD000130BE00831686178312861FB90A61
:1010B00039083B3C031CB9018A11EA258A15FF3027
:1010C000CD00CE008316D9014330D80083124208E8
:1010D0008316DB00831241088316DA008A1183121B
:1010E000E2238A1539080F398A1138208A157F3989
:1010F000CD00390EF7000F30F70577088A11382038
:101100008A15F800CE008316D9014330D800831227
:1011100042088316DB00831241088316DA008A1125
:101120008312E2238A158A114E258A158316061426
:1011300083120618AD2814308316D7008A11831243
:1011400071228A158316061483120618AC2883169A
:1011500006148312061CA728AE2853288316861768
:101160008312861FBA0A3A08173C031CBA018A1177
:10117000EA258A15FF30CF00D0008316D90143300D
:10118000D800831242088316DB00831241088316BD
:10119000DA008A118312E2238A153A080F398A117C
:1011A00038208A157F39CF003A0EF7000F30F70547
:1011B00077088A1138208A15F800D0008316D901E3
:1011C0004330D800831242088316DB0083124108A3
:1011D0008316DA008A118312E2238A158A114E25BA
:1011E0008A158316061483120618082914308316EC
:1011F000D7008A11831271228A158316061483126E
:1012000006180729831606148312061C02290929C9
:10121000AE28831686178312861FBB0A3B081F3C25
:10122000031814290130BB008A11EA258A15FF3002
:10123000C900CA008316D9014330D800831242087E
:101240008316DB00831241088316DA008A118312A9
:10125000E2238A153B080F398A1138208A157F3915
:10126000C9003B0EF7000F30F70577088A113820C8
:101270008A15F800CA008316D9014330D8008312BA
:1012800042088316DB00831241088316DA008A11B4
:101290008312E2238A158A114E258A1583160614B5
:1012A00083120618652914308316D7008A11831219
:1012B00071228A1583160614831206186429831670
:1012C00006148312061C5F296629092983168617CE
:1012D0008312861FBC0A3C080C3C0318712901309C
:1012E000BC008A11EA258A15FF30C700C8008316A2
:1012F000D9014330D800831242088316DB008312E1
:1013000041088316DA008A118312E2238A153C0809
:101310000F398A1138208A157F39C7003C0EF70033
:101320000F30F70577088A1138208A15F800C800B1
:101330008316D9014330D800831242088316DB009C
:10134000831241088316DA008A118312E2238A1578
:101350008A114E258A158316061483120618C2298F
:1013600014308316D7008A11831271228A158316CE
:10137000061483120618C129831606148312061C4C
:10138000BC29C3296629831686178312861FBD0AC6
:101390003D08323C031CBD018A11EA258A15FF3045
:1013A000C300C4008316D9014330D8008312420819
:1013B0008316DB00831241088316DA008A11831238
:1013C000E2238A153D080F398A1138208A15F80062
:1013D000C3003D0EF7000F30F70577088A1138205B
:1013E0008A15F800C4008316D9014330D80083124F
:1013F00042088316DB00831241088316DA008A1143
:101400008312E2238A158A114E258A158316061443
:10141000831206181D2A14308316D7008A118312EE
:1014200071228A1583160614831206181C2A831645
:1014300006148312061C172A1E2AC3298316861730
:101440008312861FBE0A3E08073C0318292A013072
:10145000BE008A11EA258A15FF30C500C600831632
:10146000D9014330D800831242088316DB0083126F
:1014700041088316DA008A118312E2238A153E0B93
:10148000462AA730C600AB30C5004E2AC030C60081
:101490003E088A1138208A15F800C5008316D90144
:1014A0004330D800831242088316DB0083124108C0
:1014B0008316DA008A118312E2238A158A114E25D7
:1014C0008A158316061483120618782A1430831698
:1014D000D7008A11831271228A158316061483128B
:1014E0000618772A831606148312061C722A792A94
:1014F0001E2ABF08031D872A3B30BF00C008031DFA
:10150000832A1730852A01304002C000892A013021
:10151000BF028A11EA258A158316D601831238087C
:101520008316D7008A118312EC218A1501308316A5
:10153000D600831239088316D7008A118312EC2152
:101540008A1502308316D60083123A088316D70014
:101550008A118312EC218A1503308316D600831278
:101560003E088316D7008A118312EC218A150430B5
:101570008316D60083123B088316D7008A11831284
:10158000EC218A1505308316D60083123C08831699
:10159000D7008A118312EC218A1506308316D600F3
:1015A00083123D088316D7008A118312EC218A1515
:1015B000C2011E30C100C8308316D7008A118312C1
:1015C00071228A15831655080A3C0318BB2BFF3A73
:1015D000031DEE2A5408B83C0318BB2B5508133CD6
:1015E000031CBB2B031DF82A5408883C031CBB2B8F
:1015F0008312C2010F30C100E230B700B71F022BC7
:101600000030032B0130D4003708B71F092B3708EF
:10161000003CD500831686178312861FB70AB71BB6
:10162000172B37081D3C0318172BE230B700B71FE4
:101630001B2B00301C2B0130D4003708B71F222B86
:101640003708003CD500FF30D000D100D20083160F
:10165000D9014330D800831242088316DB0083127D
:1016600041088316DA008A118312E2238A1555088D
:101670008316D7000A30D8008A118312D3258A1521
:1016800077088A1138208A15F800D000550883168B
:10169000D7000A30D8008A118312D3258A1578081A
:1016A0008A1138208A15F800D100D408031D5B2B5D
:1016B000BF30D2005D2BFF30D2008316D9014330FA
:1016C000D800831242088316DB0083124108831678
:1016D000DA008A118312E2238A1583160614831214
:1016E0000618842B14308316D7008A1183127122B6
:1016F0008A158316061483120618832B8316061484
:101700008312061C7E2B852B0A2B0B08F7008B13EC
:10171000FE3003178D000313540803178C00831643
:101720008C130C1555308D00AA308D008C148C183C
:10173000972B0C117708831203138B040B08F70007
:101740008B13FF3003178D000313550803178C000C
:1017500083168C130C1555308D00AA308D008C1417
:101760008C18B02B0C117708831203138B04C20161
:101770001E30C10083165508123C0318FB2BFF3A9C
:10178000031DC62B5408883C0318FB2B55081B3C33
:10179000031CFB2B031DD02B5408583C031CFB2BB4
:1017A00004308312B306331DD92B83160C14FB2B84
:1017B000831283160C1005108312051483168510EE
:1017C0008312851083160511831205118316851166
:1017D0008312851183160512831205128316851252
:1017E000831285128316051383120513831685133E
:1017F00083128517831655081A3C0318512CFF3A9B
:10180000031D062C5408583C0318512C0230831237
:10181000B306B31C3D2C831608138312081702303D
:101820008316D600FA30D7008A11831271228A15E6
:101830008316D60B122C081383120813023083165A
:10184000D600FA30D7008A11831271228A158316C6
:10185000D60B212C08138312081702308316D600EA
:10186000FA30D7008A11831271228A158316D60B9B
:10187000302C081383120813502C8316081383127C
:10188000081708308316D600FA30D7008A11831261
:1018900071228A158316D60B442C08138312081361
:1018A000831683128A110A12E42F8A11D0228A1514
:1018B0008A114E258A15B80803196D2C380B612C36
:1018C0006D2C3808023C03196D2C3808033C0319B1
:1018D0006D2C3808043C031DEA2CB908031DEA2CC2
:1018E0003A080C3C0319782C3A08123C031DEA2CE8
:1018F00004308316D600FA30D7008A118312712281
:101900008A158316D60B7B2CD4015408053C031C86
:10191000E92C051083120514831685108312851493
:1019200083160511831205158316851183128515FB
:1019300083160512831205168316851283128516E7
:1019400083160513831205178316851383128517D3
:10195000831608138312081702308316D600FA3054
:10196000D7008A11831271228A158316D60BAF2CE9
:1019700005108312051083168510831285108316B7
:1019800005118312051183168511831285118316A3
:10199000051283120512831685128312851283168F
:1019A000051383120513831685138312851383167B
:1019B00008138312081302308316D600FA30D700BA
:1019C0008A11831271228A158316D60BDE2CD40A53
:1019D000852C8312B8080319FC2C380BF02CFC2C36
:1019E0003808023C0319FC2C3808033C0319FC2C72
:1019F0003808043C031D812DB908031D812D3A08C8
:101A0000053C0318072D3A080B3C03180F2D3A0824
:101A10000C3C0318812D3A08113C031C812D043025
:101A20008316D600FA30D7008A11831271228A15E4
:101A30008316D60B122DD5015508023C031C802DB0
:101A400005108312051483168510831285148316DE
:101A500005118312051583168511831285158316CA
:101A600005128312051683168512831285168316B6
:101A700005138312051783168513831285178316A2
:101A800008138312081702308316D600FA30D700E5
:101A90008A11831271228A158316D60B462D0510E2
:101AA0008312051083168510831285108316051185
:101AB0008312051183168511831285118316051271
:101AC000831205128316851283128512831605135D
:101AD0008312051383168513831285138316081347
:101AE0008312081302308316D600FA30D7008A1109
:101AF000831271228A158316D60B752DD50A1C2DDB
:101B000083128A11EA258A1583160510831205149B
:101B10008316851083128510831605118312051113
:101B200083168511831285118316051283120512FF
:101B300083168512831285128316051383120513EB
:101B400083168513831285178316081383120813CF
:061B50008A110A12EA2FBF
:0443FC0000001500A8
:04400E00E42FFF3F5D
:00000001FF
;PIC16F887
;CRC=6DEF  CREATED="21-Feb-26 10:19"
