:100000000E308A000B2E0000FF00030E8301A100BA
:100010000A08A0008A010408A2007708A300780853
:10002000A4007908A5007A08A600831383128C30F7
:100030008400001C1D280C1832288B1E21280B1947
:100040003528220884002308F7002408F800250832
:10005000F9002608FA0020088A00210E8300FF0E0E
:100060007F0E09008A110A1209298A110A126E28C4
:100070000A108A100A118207C034F934A434B0344B
:10008000993492348234F834803490340A108A10CF
:100090000A11820701340234043408341034203445
:1000A00040348034013402340434083410342034B1
:1000B000403480340A108A100A118207FF34FF345A
:1000C000FF34FF34FF34FF34FF34FF34FF34FF3498
:1000D000FF34FF34FF34FF34FF34FF340630810037
:1000E000B40A0319B50A0B110B118A110A1221283F
:1000F0000317151C7D2801307E280030003A031DAF
:100100008528031305108728031703130514831686
:10011000051083120317951C8F280130902800309A
:10012000003A031D9728031385109928031703131A
:1001300085148316851083120317151DA12801301D
:10014000A2280030003A031DA92803130511AB288B
:100150000317031305158316051183120317951D45
:10016000B3280130B4280030003A031DBB28031324
:100170008511BD2803170313851583168511831276
:100180000317151EC5280130C6280030003A031D8C
:10019000CD2803130512CF28031703130516831662
:1001A000051283120317951ED7280130D828003076
:1001B000003A031DDF2803138512E12803170313F8
:1001C00085168316851283120317151FE92801303F
:1001D000EA280030003A031DF12803130513F32821
:1001E0000317031305178316051383120317951FAF
:1001F000FB280130FC280030003A031D03290313BB
:100200008513052903170313851783168513831296
:1002100008008E01FF308F0006308E00B60A3608C7
:10022000C73C031C15290C109329B60133191A2950
:100230000C10932933183429FF30AE00FE30B00083
:10024000B101B2010130AF003108F80003192C29C7
:100250000310AF0DF80B28292E0803179500031380
:10026000782033140C1093293108073C031C7D2996
:10027000B208031D45290130AF003108F800031909
:1002800045290310AF0DF80B41290310AF0C2F08BF
:100290003004AE002E080317950003137820B20A2D
:1002A0003208310203187C290310B00DB10AB201E3
:1002B0003108073C03187229FF30AE002E080317DF
:1002C000950003137820FE30B000B101B201013077
:1002D000AF003108F800031971290310AF0DF80BB6
:1002E0006D297C290130AF003108F80003197C2901
:1002F0000310AF0DF80B78299229B101B201FE303D
:10030000B0000130AF003108F80003198B29031049
:10031000AF0DF80B8729FF30AE002E0803179500AC
:10032000031378200C100C108A110A1221280B13C9
:100330008B138B1B982983160108C0390238810062
:100340000630831281000B118A150A12D52E0B1369
:100350008B138B1BA829353090008E01FF308F0046
:1003600006308E000C108A150A12D82E0830F800BC
:1003700000008711AD112D08831687000000D80DED
:1003800083120712031CCA292D162D088316870015
:10039000CE2983122D122D088316870000008312A8
:1003A000AD152D08831687008312871DD529F80BFC
:1003B000B82900008711AD112D08831687000000B1
:1003C00083122D162D08831687000000000083126B
:1003D000AD152D08831687008312871DED29F801BE
:1003E0000000071A78148711AD112D0883168700B5
:1003F000831207122D122D0883168700831208001E
:100400002D162D088316870000008312AD152D08C8
:10041000831687000000831207122D122D08831601
:100420008700000083128711AD112D088316870005
:10043000D030D8008312B62183165608D800831214
:10044000B62183165708D8008312B6212D122D0825
:100450008316870000008312AD152D0883168700D0
:100460008312871D312A0000352A00002D162D0821
:1004700083168700000083120800B801B901BA0191
:100480000130BE00BB00BC002630BD008316D60183
:10049000831238088316D700831200220130831696
:1004A000D600831239088316D70083120022023047
:1004B0008316D60083123A088316D70083120022CF
:1004C00003308316D60083123E088316D7008312AA
:1004D000002204308316D60083123B088316D7000F
:1004E0008312002205308316D60083123C0883163F
:1004F000D7008312002206308316D60083123D08EF
:100500008316D700831200220800D730840083139B
:1005100000080319982A0230F800F701F70B8E2A19
:10052000F80B8D2A9730F700F70B942A800B8B2A53
:10053000080008308316D9007708DA0083122D16D8
:100540002D088316870000008312AD152D08831631
:1005500087008312871DAA2A071A0314071E031097
:10056000F80D0000AD112D08831687008312871146
:100570008316D90B9E2A83122D162D088316870009
:1005800000008312071283165A080319CC2A83121B
:100590002D122D088316870000008312AD152D083B
:1005A000831687008312871DD32A00008711AD119F
:1005B0002D08831687000000831207122D122D08C4
:1005C00083168700831208002D162D0883168700D6
:1005D00000008312AD152D088316870000008312DA
:1005E00007122D122D088316870000008312871131
:1005F000AD112D0883168700D030D8008312B621A4
:100600008316D8018312B6212D162D088316870074
:1006100000008312AD152D08831687000000831299
:10062000871D102B07122D122D088316870000003E
:1006300083128711AD112D0883168700D130D800A1
:100640008312B6210130F70099227808B8000130F2
:10065000F70099227808B9000130F700992278084C
:10066000BA000130F70099227808BE000130F70087
:1006700099227808BB000130F70099227808BC0065
:10068000F70199227808BD002D122D0883168700E6
:1006900000008312AD152D08831687008312871D75
:1006A0004F2B0000532B00002D162D0883168700BA
:1006B000000083123B0EF7000F30F7057708382053
:1006C000F8008316A80083123B080F3938207F39C1
:1006D0008316A90083123C0EF7000F30F705770848
:1006E0003820F8008316AA0083123C080F393820FE
:1006F0007F398316AB00A430AC00C030AD0083124C
:100700003D0EF7000F30F70577083820F800831604
:10071000AE0083123D080F393820F8008316AF0071
:1007200083123E0B9A2BA7308316B600AB30B7006E
:10073000A32B8312FF308316B70083123E083820A4
:10074000F8008316B600831238080F393820F800F5
:10075000CB00380EF7000F30F70577083820F80087
:10076000CC0039080F3938207F39CD00390EF70019
:100770000F30F70577083820F800CE003A080F3917
:1007800038207F39CF003A0EF7000F30F705770891
:100790003820F800D000FF30D100D2000800031745
:1007A00091011108073C031CF42B901FD92B013039
:1007B000DA2B0030003A031DE12B03130810E32B62
:1007C0000317031308148316081008118312081165
:1007D000E92BEA2BEB2B8316081183120815031063
:1007E0000317900D910AD12B0313080083165B08A1
:1007F000FA005A080319DB03DA03DC007A08DD008B
:10080000DC08031D062CDD080319FE2C5808F8002F
:100810005908FA007808DC007A08DD005D08DF007E
:100820005C08DE00E40164080F3C031CFD2C640836
:10083000073C031C4E2C64085E07840083135F187A
:1008400083170008E801E701E601E500E800E5019B
:10085000E601E701640883124620F8008316ED01E3
:10086000EC01EB017808EA006B08ED006A08EC0087
:10087000EA01EB01F7016B08F8006C08F9006D085C
:10088000FA0077086504E00078086604E10079085A
:100890006704E2007A086804E300782C64085E07C5
:1008A000840083135F1883170008E801E701E6015D
:1008B000E5006708E8006608E7006508E600E5016E
:1008C000640883124620F8008316ED01EC01EB0169
:1008D0007808EA00F700F90177086504E0006B0882
:1008E0006604E10079086704E2006D086804E3002B
:1008F0006308E8006208E7006108E6006008E500B8
:10090000F801F901FA016508EC0066088312031783
:10091000910083160313670883120317920083164E
:10092000031368088312031793009401F801F90177
:10093000FA01110883160313EB00670883120317EB
:100940009100831603136808831203179200930122
:100950009401F801F901FA01110883160313EA0062
:100960006808831203179100920193019401F80122
:10097000F901FA01110883160313E90069088312CB
:10098000031790000313CF2383166A0883120317FB
:1009900090000313CF2383166B0883120317900074
:1009A0000313CF2383166C088312031790000313DD
:1009B000CF238316081283120812DE2CDF2CE02CC2
:1009C000831608128312081602308316E500F830E9
:1009D000E6000830E602031CF92CE630840083139D
:1009E0000310800C00080319F92CF72C0000800B71
:1009F000F62CE50BE72CE40A132CF72B83120800E6
:100A00008316D6080319372D8312E4228316D701E3
:100A10005708073C031C2B2D43305707F800FA01F9
:100A20000318FA0A7808D8007A08D9000730831228
:100A30005307F800831657087802A03E84008313FA
:100A40000008DA00580884008313591883175A08DD
:100A50008000D70A082DD9014330D8005508DB00A3
:100A60005408DA008312F6238316D603012D83126D
:100A70008A150A121D2F8316D60156080F3C031C37
:100A80004D2D4330560784008313560883125A2095
:100A9000F80080008316D60A3D2D83120800F70166
:100AA000F8018316580803105918F707F70CF80CCB
:100AB000D918F707F70CF80C5919F707F70CF80CC9
:100AC000D919F707F70CF80C591AF707F70CF80CB7
:100AD000D91AF707F70CF80C591BF707F70CF80CA5
:100AE000D91BF707F70CF80C83120800380EF70033
:100AF0000F30F70577088316D700D8000A30D900E1
:100B000083124F2578088316D600831238080F39D0
:100B1000831656078312B800390EF7000F30F70519
:100B200077088316D700D8000A30D90083124F25E2
:100B300078088316D600831239080F3983165607B2
:100B40008312B9003A0EF7000F30F70577088316C5
:100B5000D700D8000A30D90083124F2578088316B1
:100B6000D60083123A080F39831656078312BA004B
:100B70003B0EF7000F30F70577088316D700D80033
:100B80000A30D90083124F2578088316D6008312C5
:100B90003B080F39831656078312BB003C0EF70043
:100BA0000F30F70577088316D700D8000A30D90030
:100BB00083124F2578088316D60083123C080F391C
:100BC000831656078312BC003D0EF7000F30F70561
:100BD00077088316D700D8000A30D90083124F2532
:100BE00078088316D60083123D080F3983165607FE
:100BF0008312BD00080083165808F8015702031835
:100C0000042E5708F700102EF7010830D900D70D31
:100C1000F70D580877020318F700F80DD90B072EC7
:100C20008312080038088316D7000A30D8008312D0
:100C3000FB25780E8316D600F030D60583123808CF
:100C40008316D7000A30D8008312FB257708831655
:100C500056078312B80039088316D7000A30D80027
:100C60008312FB25780E8316D600F030D60583124A
:100C700039088316D7000A30D8008312FB2577087D
:100C8000831656078312B9003A088316D7000A3034
:100C9000D8008312FB25780E8316D600F030D605D7
:100CA00083123A088316D7000A30D8008312FB2536
:100CB0007708831656078312BA003B088316D700BD
:100CC0000A30D8008312FB25780E8316D600F03048
:100CD000D60583123B088316D7000A30D80083124A
:100CE000FB257708831656078312BB003C08831642
:100CF000D7000A30D8008312FB25780E8316D60061
:100D0000F030D60583123C088316D7000A30D8008D
:100D10008312FB257708831656078312BC003D0813
:100D20008316D7000A30D8008312FB25780E83166D
:100D3000D600F030D60583123D088316D7000A305E
:100D4000D8008312FB257708831656078312BD004F
:100D50000800E422762538081B3C0319BF2E38080A
:100D60001C3C0319BF2E38081D3C0319BF2E380840
:100D70001E3C0319BF2E38081F3C031DFB2E3F08E5
:100D80003902031DFB2E40083A02031DFB2EFE30E4
:100D900003178D0083168C130C1483120C08031395
:100DA000D400FF3003178D0083168C130C148312AC
:100DB0000C080313D500D5080319FB2ED408031D16
:100DC000E42E5508B802E62E5508B80712268316F9
:100DD000D601831238088316D70083120022903080
:100DE0008316D400FA30D700831285228316D40BE1
:0C0DF000F22E8312E4228A150A12262F2C
:101000008316061483120618B02C02308316D600FD
:10101000FA30D7008A11831285228A158316D60BDF
:101020000828061483120618B02C83160C1083129D
:10103000B501B4010B11063081008B16C0308B0452
:10104000831606148312061C20288B12331D2C28AD
:1010500083160C142E28831283160C108312340866
:10106000F8003508F90079088316D5007808D4000F
:1010700055080B3C031C422B031D42285408B83C66
:10108000031C422B8A1183123B258A15C2010F30A3
:10109000C1008A1176258A15B801B901BA0101305B
:1010A000BB00BC001A30BD000130BE00831686179D
:1010B0008312861FB90A39083B3C031CB9018A1107
:1010C00012268A15FF30CD00CE008316D901433099
:1010D000D800831242088316DB008312410883166E
:1010E000DA008A118312F6238A1539080F398A111A
:1010F00038208A157F39CD00390EF7000F30F705FB
:1011000077088A1138208A15F800CE008316D90195
:101110004330D800831242088316DB008312410853
:101120008316DA008A118312F6238A158A1176252E
:101130008A158316061483120618B02814308316F5
:10114000D7008A11831285228A158316061483120A
:101150000618AF28831606148312061CAA28B12885
:101160005628831686178312861FBA0A3A08173C38
:10117000031CBA018A1112268A15FF30CF00D00055
:101180008316D9014330D800831242088316DB004E
:10119000831241088316DA008A118312F6238A1516
:1011A0003A080F398A1138208A157F39CF003A0E54
:1011B000F7000F30F70577088A1138208A15F800F4
:1011C000D0008316D9014330D80083124208831619
:1011D000DB00831241088316DA008A118312F6239A
:1011E0008A158A1176258A15831606148312061825
:1011F0000B2914308316D7008A11831285228A1591
:1012000083160614831206180A29831606148312FD
:10121000061C05290C29B128831686178312861F00
:10122000BB0A3B081F3C031817290130BB008A1179
:1012300012268A15FF30C900CA008316D90143302F
:10124000D800831242088316DB00831241088316FC
:10125000DA008A118312F6238A153B080F398A11A6
:1012600038208A157F39C9003B0EF7000F30F7058B
:1012700077088A1138208A15F800CA008316D90128
:101280004330D800831242088316DB0083124108E2
:101290008316DA008A118312F6238A158A117625BD
:1012A0008A158316061483120618682914308316CB
:1012B000D7008A11831285228A1583160614831299
:1012C00006186729831606148312061C62296929E9
:1012D0000C29831686178312861FBC0A3C080C3C17
:1012E000031874290130BC008A1112268A15FF30B8
:1012F000C700C8008316D9014330D80083124208C2
:101300008316DB00831241088316DA008A118312E8
:10131000F6238A153C080F398A1138208A157F393F
:10132000C7003C0EF7000F30F70577088A11382008
:101330008A15F800C8008316D9014330D8008312FB
:1013400042088316DB00831241088316DA008A11F3
:101350008312F6238A158A1176258A1583160614B8
:1013600083120618C52914308316D7008A118312F8
:1013700085228A158316061483120618C42983163B
:1013800006148312061CBF29C629692983168617ED
:101390008312861FBD0A3D08323C031CBD018A1121
:1013A00012268A15FF30C300C4008316D9014330CA
:1013B000D800831242088316DB008312410883168B
:1013C000DA008A118312F6238A153D080F398A1133
:1013D00038208A15F800C3003D0EF7000F30F705DE
:1013E00077088A1138208A15F800C4008316D901BD
:1013F0004330D800831242088316DB008312410871
:101400008316DA008A118312F6238A158A1176254B
:101410008A158316061483120618202A14308316A0
:10142000D7008A11831285228A1583160614831227
:1014300006181F2A831606148312061C1A2A212A4C
:10144000C629831686178312861FBE0A3E08073CEC
:1014500003182C2A0130BE008A1112268A15FF308B
:10146000C500C6008316D9014330D8008312420854
:101470008316DB00831241088316DA008A11831277
:10148000F6238A153E0B492AA730C600AB30C500AB
:10149000512AC030C6003E088A1138208A15F8004B
:1014A000C5008316D9014330D80083124208831641
:1014B000DB00831241088316DA008A118312F623B7
:1014C0008A158A1176258A15831606148312061842
:1014D0007B2A14308316D7008A11831285228A153D
:1014E00083160614831206187A2A831606148312AA
:1014F000061C752A7C2A212A8A113B258A15831607
:1015000086178312861B862A0830B306FF30CE006A
:10151000CD00CC00CB00C3008316D9014330D800E6
:10152000831242088316DB00831241088316DA0017
:101530008A118312F6238A159230CE008830CD00AE
:10154000C130CC008630CB00B31DA92A9130C30036
:10155000AB2AC830C3008316D9014330D8008312A8
:1015600042088316DB00831241088316DA008A11D1
:101570008312F6238A158316061483120618D22ABC
:1015800014308316D7008A11831285228A15831698
:10159000061483120618D12A831606148312061C19
:1015A000CC2AD32A7F2AB31D412BB908031DE32A75
:1015B0003B30BF00BA08031DDF2A1730E12A013093
:1015C0003A02C000E82A01303902BF003A08C000E0
:1015D0008A1112268A158316D601831238088316BB
:1015E000D7008A11831200228A1501308316D60093
:1015F000831239088316D7008A11831200228A15B4
:1016000002308316D60083123A088316D7008A1157
:10161000831200228A1503308316D60083123E08F7
:101620008316D7008A11831200228A15043083168C
:10163000D60083123B088316D7008A11831200223A
:101640008A1505308316D60083123C088316D7000E
:101650008A11831200228A1506308316D60083125F
:101660003D088316D7008A11831200228A15C20111
:101670001E30C100C8308316D7008A11831285221C
:101680008A15831655080A3C03181B2CFF3A031DC4
:101690004D2B5408B83C03181B2C5508133C031C55
:1016A0001B2C031D572B5408883C031C1B2C8A1130
:1016B00083123B258A15C2010F30C100B71F622B70
:1016C0000030632B0130D4003708B71F692B37086F
:1016D000003CD500831686178312861FB70AB71BF6
:1016E000772B37081D3C0318772BE530B700B71F61
:1016F0007B2B00307C2B0130D4003708B71F822BA6
:101700003708003CD500FF30D000D100D20083164E
:10171000D9014330D800831242088316DB008312BC
:1017200041088316DA008A118312F6238A155508B8
:101730008316D7000A30D8008A118312FB258A1538
:1017400077088A1138208A15F800D00055088316CA
:10175000D7000A30D8008A118312FB258A15780831
:101760008A1138208A15F800D100D408031DBB2B3C
:10177000BF30D200BD2BFF30D2008316D9014330D9
:10178000D800831242088316DB00831241088316B7
:10179000DA008A118312F6238A158316061483123F
:1017A0000618E42B14308316D7008A118312852281
:1017B0008A158316061483120618E32B8316061463
:1017C0008312061CDE2BE52B6A2B0B08F7008B130C
:1017D000FE3003178D000313540803178C00831683
:1017E0008C130C1555308D00AA308D008C148C187C
:1017F000F72B0C117708831203138B040B08F700E7
:101800008B13FF3003178D000313550803178C004B
:1018100083168C130C1555308D00AA308D008C1456
:101820008C18102C0C117708831203138B04C2013F
:101830001E30C10083165508123C03185B2CFF3A7A
:10184000031D262C5408883C03185B2C55081B3CB0
:10185000031C5B2C031D302C5408583C031C5B2CD0
:1018600004308312B306331D392C83160C145B2C01
:10187000831283160C10051083120514831685102D
:1018800083128510831605118312051183168511A5
:101890008312851183160512831205128316851291
:1018A000831285128316051383120513831685137D
:1018B00083128517831655081A3C0318B12CFF3A7A
:1018C000031D662C5408583C0318B12C02308312B7
:1018D000B306B31C9D2C831608138312081702301D
:1018E0008316D600FA30D7008A11831285228A1512
:1018F0008316D60B722C081383120813023083163A
:10190000D600FA30D7008A11831285228A158316F1
:10191000D60B812C08138312081702308316D600C9
:10192000FA30D7008A11831285228A158316D60BC6
:10193000902C081383120813B02C831608138312FB
:10194000081708308316D600FA30D7008A118312A0
:1019500085228A158316D60BA42C0813831208132C
:10196000831683128A150A12242F8A11E4228A15FB
:101970008A1176258A15B8080319CD2C380BC12C8D
:10198000CD2C3808023C0319CD2C3808033C031930
:10199000CD2C3808043C031D4A2DB908031D4A2DDF
:1019A0003A080C3C0319D82C3A08123C031D4A2D66
:1019B00004308316D600FA30D7008A1183128522AC
:1019C0008A158316D60BDB2CD4015408053C031C66
:1019D000492D051083120514831685108312851472
:1019E000831605118312051583168511831285153B
:1019F0008316051283120516831685128312851627
:101A00008316051383120517831685138312851712
:101A1000831608138312081702308316D600FA3093
:101A2000D7008A11831285228A158316D60B0F2DB3
:101A300005108312051083168510831285108316F6
:101A400005118312051183168511831285118316E2
:101A500005128312051283168512831285128316CE
:101A600005138312051383168513831285138316BA
:101A700008138312081302308316D600FA30D700F9
:101A80008A11831285228A158316D60B3E2DD40A1D
:101A9000E52C8312B80803195C2D380B502D5C2DF2
:101AA0003808023C03195C2D3808033C03195C2DEF
:101AB0003808043C031DE12DB908031DE12D3A0847
:101AC000053C0318672D3A080B3C03186F2D3A08A4
:101AD0000C3C0318E12D3A08113C031CE12D0430A5
:101AE0008316D600FA30D7008A11831285228A1510
:101AF0008316D60B722DD5015508023C031CE02D30
:101B0000051083120514831685108312851483161D
:101B10000511831205158316851183128515831609
:101B200005128312051683168512831285168316F5
:101B300005138312051783168513831285178316E1
:101B400008138312081702308316D600FA30D70024
:101B50008A11831285228A158316D60BA62D0510AD
:101B600083120510831685108312851083160511C4
:101B700083120511831685118312851183160512B0
:101B8000831205128316851283128512831605139C
:101B90008312051383168513831285138316081386
:101BA0008312081302308316D600FA30D7008A1148
:101BB000831285228A158316D60BD52DD50A7C2D46
:101BC00083128A1112268A158316051083120514B2
:101BD0008316851083128510831605118312051153
:101BE000831685118312851183160512831205123F
:101BF000831685128312851283160513831205132B
:101C0000831685138312851783160813831208130E
:101C10008A150A12292F03081F3983007130831691
:101C20008F000F08FF308312AD00FF30AE00AF0110
:101C3000FE30B000B101B2013310B501B401B601FC
:101C4000B7010C30BF000C30C000C2011E30C10013
:101C5000D301B3103311B3110130D400D501831671
:101C600003170908C039890003131F129F1200309F
:101C700003178800831287018801890183130313E6
:101C8000A701A801FF30C300C400C500C600C700FB
:101C9000C800C900CA00CB00CC00CD00CE00CF00E8
:101CA000D000D100D2008316A000A100A200A300A2
:101CB000A400A500A600A700A800A900AA00AB00E8
:101CC000AC00AD00AE00AF00B000B1008730B20094
:101CD0008B30B300E330B400FF30B500C630B6003F
:101CE000C830B700FF30B800B9008730BA00AF3055
:101CF000BB00A330BC00AB30BD00FF30BE00A13044
:101D0000BF00FB30C000AB30C1008B30C200FF30E1
:101D1000C3008730C4008B30C500E330C600A33059
:101D2000C700AB30C8009030C900FF30CA00CB00FC
:101D3000CC00CD00CE00CF00D000D1000030850017
:101D4000FF308600003088000810831208108316C8
:101D500008118312081183160812831208168316BD
:101D600005108312051483168510831285108316BF
:101D700005118312051183168511831285118316AF
:101D8000051283120512831685128312851283169B
:101D90000513831205138316851383128517831683
:101DA0000813831208138A1197298A158A11A72903
:101DB0008A158A113D228A1550308316D400FA30D4
:101DC000D7008A11831285228A158316D40BDF2E41
:101DD0008A1183123D228A15FE3003178D00831667
:101DE0008C130C1483120C0883160313D200FF30DB
:101DF000831203178D0083168C130C1483120C08A6
:101E000083160313D300D208031D0C2F5308003C84
:101E10008312B7000F2F831653088312B700C03008
:101E20008B0442088316D500831241088316D40020
:101E30000130D6008A118312002D8A15D30A530867
:101E40002A3C031CD30100288A11A92E8A15B31835
:061E5000B52C112F630008
:0443FC0000001500A8
:04400E00E42FFF3F5D
:00000001FF
;PIC16F887
;CRC=9B68  CREATED="26-Feb-26 05:59"
