:1000000006308A00E32E0000FF00030E8301A100EA
:100010000A08A0008A010408A2007708A300780853
:10002000A4007908A5007A08A600831383128B1E0A
:100030001B280B192C28220884002308F700240809
:10004000F8002508F9002608FA0020088A00210E89
:100050008300FF0E7F0E09008A110A1251280A1030
:100060008A100A118207C034F934A434B0349934A8
:1000700092348234F834803490340A108A100A1191
:1000800082070134023404340834103420344034FC
:1000900080340134023404340834103420344034C1
:1000A000803406308100AE0A0319AF0A0B110B1120
:1000B0008A110A121B280B138B138B1B5C288316C7
:1000C0000108C039023881000630831281000B110B
:1000D0008A110A129D2F0830F80000008711AD1117
:1000E0002D08831687000000D80D83120712031C09
:1000F0007F282D162D0883168700832883122D1242
:100100002D088316870000008312AD152D08831675
:1001100087008312871D8A28F80B6D28000087113D
:10012000AD112D0883168700000083122D162D08AF
:1001300083168700000000008312AD152D0883167A
:1001400087008312871DA228F8010000071A78147F
:100150008711AD112D0883168700831207122D1207
:100160002D0883168700831208002D162D0883168C
:10017000870000008312AD152D088316870000004C
:10018000831207122D122D08831687000000831298
:100190008711AD112D0883168700D030D800831247
:1001A0006B2083165608D80083126B2083165708DD
:1001B000D80083126B202D122D08831687000000B3
:1001C0008312AD152D08831687008312871DE6283C
:1001D0000000EA2800002D162D0883168700000075
:1001E00083120800B101B201B3010130B700B400BD
:1001F000B5002630B6008316D60183123108831667
:10020000D7008312B52001308316D600831232083E
:100210008316D7008312B52002308316D6008312CE
:1002200033088316D7008312B52003308316D60017
:10023000831237088316D7008312B5200430831643
:10024000D600831234088316D7008312B5200530F8
:100250008316D600831235088316D7008312B52083
:1002600006308316D600831236088316D700831211
:10027000B5200800D73084008313000803194D29E6
:100280000230F800F701F70B4329F80B42299730A9
:10029000F700F70B4929800B402908000830831626
:1002A000D9007708DA0083122D162D0883168700EF
:1002B00000008312AD152D08831687008312871D59
:1002C0005F29071A0314071E0310F80D0000AD1173
:1002D0002D0883168700831287118316D90B5329A3
:1002E00083122D162D088316870000008312071233
:1002F00083165A080319812983122D122D0883169B
:10030000870000008312AD152D0883168700831225
:10031000871D882900008711AD112D0883168700DD
:100320000000831207122D122D08831687008312F6
:1003300008002D162D088316870000008312AD15C6
:100340002D08831687000000831207122D122D0836
:1003500083168700000083128711AD112D088316C4
:100360008700D030D80083126B208316D801831207
:100370006B202D162D088316870000008312AD1503
:100380002D088316870000008312871DC5290712D8
:100390002D122D0883168700000083128711AD11DE
:1003A0002D0883168700D130D80083126B200130CE
:1003B000F7004E217808B1000130F7004E2178088F
:1003C000B2000130F7004E217808B3000130F70089
:1003D0004E217808B7000130F7004E217808B400AC
:1003E0000130F7004E217808B500F7014E2178085A
:1003F000B6002D122D088316870000008312AD155C
:100400002D08831687008312871D042A0000082AFE
:1004100000002D162D088316870000008312340E6D
:10042000F7000F30F70577082F20F8008316A80093
:10043000831234080F392F207F398316A9008312C5
:10044000350EF7000F30F70577082F20F8008316D8
:10045000AA00831235080F392F207F398316AB008D
:10046000A430AC00C030AD008312360EF7000F3060
:10047000F70577082F20F8008316AE0083123608A0
:100480000F392F20F8008316AF008312370B4F2A45
:10049000A7308316B600AB30B700582A8312FF305E
:1004A0008316B700831237082F20F8008316B60092
:1004B000831231080F392F20F800C200310EF700E7
:1004C0000F30F70577082F20F800C30032080F39E6
:1004D0002F207F39C400320EF7000F30F705770860
:1004E0002F20F800C50033080F392F207F39C600B0
:1004F000330EF7000F30F70577082F20F800C700FC
:10050000FF30C800C9000800031791011108073C1B
:10051000031CA92A901F8E2A01308F2A0030003A2E
:10052000031D962A03130810982A031703130814AF
:10053000831608100811831208119E2A9F2AA02AE8
:10054000831608118312081503100317900D910AE2
:10055000862A0313080083165B08FA005A08031959
:10056000DB03DA03DC007A08DD00DC08031DBB2AAC
:10057000DD080319B32B5808F8005908FA00780869
:10058000DC007A08DD005D08DF005C08DE00E401C5
:1005900064080F3C031CB22B6408073C031C032BAC
:1005A00064085E07840083135F1883170008E8015E
:1005B000E701E601E500E800E501E601E70164087E
:1005C00083123D20F8008316ED01EC01EB01780861
:1005D000EA006B08ED006A08EC00EA01EB01F701A4
:1005E0006B08F8006C08F9006D08FA0077086504DC
:1005F000E00078086604E10079086704E2007A0800
:100600006804E3002D2B64085E07840083135F18E1
:1006100083170008E801E701E601E5006708E80044
:100620006608E7006508E600E501640883123D20DE
:10063000F8008316ED01EC01EB017808EA00F70001
:10064000F90177086504E0006B086604E1007908A9
:100650006704E2006D086804E3006308E8006208CC
:10066000E7006108E6006008E500F801F901FA0119
:100670006508EC00660883120317910083160313C4
:100680006708831203179200831603136808831206
:10069000031793009401F801F901FA011108831678
:1006A0000313EB00670883120317910083160313EB
:1006B000680883120317920093019401F801F9016D
:1006C000FA01110883160313EA006808831203175E
:1006D0009100920193019401F801F901FA011108C6
:1006E00083160313E90069088312031790000313AC
:1006F000842283166A08831203179000031384224E
:1007000083166B0883120317900003138422831649
:100710006C088312031790000313842283160812B7
:1007200083120812932B942B952B83160812831295
:10073000081602308316E500F830E6000830E602BD
:10074000031CAE2BE630840083130310800C0008DA
:100750000319AE2BAC2B0000800BAB2BE50B9C2BB5
:10076000E40AC82AAC2A831208008316D6080319A3
:10077000EC2B831299218316D7015708073C031CE1
:10078000E02B3A305707F800FA010318FA0A780804
:10079000D8007A08D900073083124A07F800831678
:1007A00057087802A03E840083130008DA00580836
:1007B00084008313591883175A088000D70ABD2B69
:1007C000D9013A30D8005508DB005408DA0083120A
:1007D000AB228316D603B62B83128A110A12DD2FA1
:1007E000F701F8018316580803105918F707F70C9A
:1007F000F80CD918F707F70CF80C5919F707F70C8C
:10080000F80CD919F707F70CF80C591AF707F70C79
:10081000F80CD91AF707F70CF80C591BF707F70C67
:10082000F80CD91BF707F70CF80C83120800310EEF
:10083000F7000F30F70577088316D700D8000A3085
:10084000D9008312F02378088316D600831231086A
:100850000F39831656078312B100320EF7000F309E
:10086000F70577088316D700D8000A30D90083121D
:10087000F02378088316D600831232080F398316C6
:1008800056078312B200330EF7000F30F7057708D2
:100890008316D700D8000A30D9008312F0237808D5
:1008A0008316D600831233080F3983165607831236
:1008B000B300340EF7000F30F70577088316D70022
:1008C000D8000A30D9008312F02378088316D600A6
:1008D000831234080F39831656078312B400350E7D
:1008E000F7000F30F70577088316D700D8000A30D5
:1008F000D9008312F02378088316D60083123508B6
:100900000F39831656078312B500360EF7000F30E5
:10091000F70577088316D700D8000A30D90083126C
:10092000F02378088316D600831236080F39831611
:1009300056078312B600080083165808F8015702BC
:100940000318A52C5708F700B12CF7010830D9007F
:10095000D70DF70D580877020318F700F80DD90BDB
:10096000A82C8312080031088316D7000A30D8005B
:1009700083129C24780E8316D600F030D60583129D
:1009800031088316D7000A30D80083129C247708D8
:10099000831656078312B10032088316D7000A3037
:1009A000D80083129C24780E8316D600F030D6052A
:1009B000831232088316D7000A30D80083129C2491
:1009C0007708831656078312B20033088316D700C0
:1009D0000A30D80083129C24780E8316D600F0309B
:1009E000D605831233088316D7000A30D800831245
:1009F0009C247708831656078312B30034088316A5
:100A0000D7000A30D80083129C24780E8316D600B3
:100A1000F030D605831234088316D7000A30D80088
:100A200083129C247708831656078312B400350876
:100A30008316D7000A30D80083129C24780E8316C0
:100A4000D600F030D605831235088316D7000A3059
:100A5000D80083129C247708831656078312B500AA
:100A600036088316D7000A30D80083129C24780EEB
:100A70008316D600F030D605831236088316D700C9
:100A80000A30D80083129C247708831656078312F5
:100A9000B60008009921172431081B3C0319602D6A
:100AA00031081C3C0319602D31081D3C0319602DD1
:100AB00031081E3C0319602D31081F3C031D9C2D7D
:100AC000B208031D9C2DB308031D9C2D370B9C2DD4
:100AD000FE3003178D0083168C130C1483120C0840
:100AE0000313CC00FF3003178D0083168C130C14F6
:100AF00083120C080313CD00CD0803199C2DCC08DC
:100B0000031D852D4D08B102872D4D08B107B32473
:100B10008316D601831231088316D7008312B520BD
:100B200090308316D400FA30D70083123A2183160E
:100B3000D40B932D831299218A110A12E62F992141
:100B40001724B1080319B32D310BA72DB32D31088C
:100B5000023C0319B32D3108033C0319B32D3108AE
:100B6000043C031D2A2EB208031D2A2E33080C3C18
:100B70000319BE2D3308123C031D2A2E04308316A0
:100B8000D600FA30D70083123A218316D60BC12D36
:100B9000D4015408053C031C292E051083120514AA
:100BA000831685108312851483160511831205158B
:100BB0008316851183128515831605128312051677
:100BC0008316851283128516831605138312051763
:100BD000831685138312851783160813831208174B
:100BE00002308316D600FA30D70083123A218316DA
:100BF000D60BF32D05108312051083168510831272
:100C00008510831605118312051183168511831231
:100C1000851183160512831205128316851283121D
:100C20008512831605138312051383168513831209
:100C30008513831608138312081302308316D60017
:100C4000FA30D70083123A218316D60B202ED40A0D
:100C5000C92D8312B10803193C2E310B302E3C2EC6
:100C60003108023C03193C2E3108033C03193C2E89
:100C70003108043C031DBB2EB208031DBB2E3308F4
:100C8000053C0318472E33080B3C03184F2E33083E
:100C90000C3C0318BB2E3308113C031CBB2E043044
:100CA0008316D600FA30D70083123A218316D60B6A
:100CB000522ED5015508023C031CBA2E0510831292
:100CC000051483168510831285148316051183126B
:100CD0000515831685118312851583160512831257
:100CE0000516831685128312851683160513831243
:100CF000051783168513831285178316081383122D
:100D0000081702308316D600FA30D70083123A2132
:100D10008316D60B842E05108312051083168510BA
:100D20008312851083160511831205118316851110
:100D300083128511831605128312051283168512FC
:100D400083128512831605138312051383168513E8
:100D50008312851383160813831208130230831637
:100D6000D600FA30D70083123A218316D60BB12E63
:100D7000D50A5A2E8312B324831605108312051444
:100D800083168510831285108316051183120511B1
:100D9000831685118312851183160512831205129D
:100DA0008316851283128512831605138312051389
:100DB000831685138312851783160813831208136D
:100DC0008A110A12E82F03081F3983007130831635
:100DD0008F000F08FF308312AD00AF01AE01B001EC
:100DE000B9011E30B800CA014B100130CC00CD0152
:100DF000831603170908C039890003131F129F12B5
:100E0000003003178800831287018801890183134A
:100E10000313A701A801FF30BA00BB00BC00BD004E
:100E2000BE00BF00C000C100C200C300C400C500B6
:100E3000C600C700C800C9008316A000A100A20018
:100E4000A300A400A500A600A700A800A900AA006E
:100E5000AB00AC00AD00AE00AF00B000B100873019
:100E6000B2008B30B300E330B400FF30B500C630C1
:100E7000B600C830B700FF30B800B9008730BA00FC
:100E8000AF30BB00A330BC00AB30BD00FF30BE00B4
:100E9000A130BF00FB30C000AB30C1008B30C200BE
:100EA000FF30C3008730C4008B30C500E330C6007C
:100EB000A330C700AB30C8009030C900FF30CA0073
:100EC000CB00CC00CD00CE00CF00D000D100003050
:100ED0008500FF308600003088000810831208105B
:100EE000831608118312081183160812831208163C
:100EF000831605108312051483168510831285103E
:100F0000831605118312051183168511831285112D
:100F10008316051283120512831685128312851219
:100F20008316051383120513831685138312851701
:100F300083160813831208135B28F220503083169F
:100F4000D400FA30D70083123A218316D40BA12F94
:100F50008312F220FE3003178D0083168C130C14BD
:100F600083120C0883160313D200FF308312031779
:100F70008D0083168C130C1483120C088316031334
:100F8000D300D208031DCD2FD3080319CC2F53084B
:100F9000003C8312B0008316D12F53088312B00097
:100FA0008316831239088316D500831238088316F6
:100FB000D4000130D6008312B52BCA0A4A082A3C55
:100FC000031CCA018A1500288A114A2D4B189F2D2F
:040FD000D22F6300B9
:101000008316061483120618F62B02308316D600B8
:10101000FA30D7008A1183123A218A158316D60B2B
:101020000828061483120618F62BAF01AE010B1127
:10103000063081008B16C0308B0483160614831291
:10104000061C1D288B120B138B138B1B24282E08B8
:10105000F8002F08F90079088316D5007808D40025
:101060005508133C031CCB2A031D3A285408883C1E
:10107000031CCB2A8312B9010F30B8008A11172440
:101080008A15B101B201B3010130B400B5001A30C4
:10109000B6000130B700831686178312861FB20A86
:1010A00032083B3C031CB2018A11B3248A15FF307D
:1010B000C400C5008316D9013A30D800831239081C
:1010C0008316DB00831238088316DA008A11831234
:1010D000AB228A1532080F398A112F208A157F39E1
:1010E000C400320EF7000F30F70577088A112F2061
:1010F0008A15F800C5008316D9013A30D80083124A
:1011000039088316DB00831238088316DA008A1147
:101110008312AB228A158A1117248A1583160614A6
:1011200083120618A52814308316D7008A1183125B
:101130003A218A158316061483120618A4288316EA
:1011400006148312061C9F28A6284B288316861790
:101150008312861FB30A3308173C031CB3018A119C
:10116000B3248A15FF30C600C7008316D9013A3070
:10117000D800831239088316DB00831238088316DF
:10118000DA008A118312AB228A1533080F398A11CB
:101190002F208A157F39C600330EF7000F30F70570
:1011A00077088A112F208A15F800C7008316D90105
:1011B0003A30D800831239088316DB0083123808CE
:1011C0008316DA008A118312AB228A158A1117243A
:1011D0008A15831606148312061800291430831604
:1011E000D7008A1183123A218A15831606148312B6
:1011F0000618FF28831606148312061CFA280129F4
:10120000A628831686178312861FB40A34081F3C4B
:1012100003180C290130B4008A11B3248A15FF3059
:10122000C000C1008316D9013A30D80083123908B2
:101230008316DB00831238088316DA008A118312C2
:10124000AB228A1534080F398A112F208A157F396D
:10125000C000340EF7000F30F70577088A112F20F1
:101260008A15F800C1008316D9013A30D8008312DC
:1012700039088316DB00831238088316DA008A11D6
:101280008312AB228A158A1117248A158316061435
:10129000831206185D2914308316D7008A11831231
:1012A0003A218A1583160614831206185C298316C0
:1012B00006148312061C57295E29012983168617F6
:1012C0008312861FB50A35080C3C031869290130C2
:1012D000B5008A11B3248A15FF30BE00BF00831603
:1012E000D9013A30D800831239088316DB00831203
:1012F00038088316DA008A118312AB228A15350862
:101300000F398A112F208A157F39BE00350EF7005C
:101310000F30F70577088A112F208A15F800BF00D3
:101320008316D9013A30D800831239088316DB00BE
:10133000831238088316DA008A118312AB228A15C9
:101340008A1117248A158316061483120618BA29DF
:1013500014308316D7008A1183123A218A15831616
:10136000061483120618B929831606148312061C64
:10137000B429BB295E29831686178312861FB60AF5
:101380003608323C031CB6018A11B3248A15FF309B
:10139000BA00BB008316D9013A30D800831239084D
:1013A0008316DB00831238088316DA008A11831251
:1013B000AB228A1536080F398A112F208A15F800BA
:1013C000BA00360EF7000F30F70577088A112F2084
:1013D0008A15F800BB008316D9013A30D800831271
:1013E00039088316DB00831238088316DA008A1165
:1013F0008312AB228A158A1117248A1583160614C4
:1014000083120618152A14308316D7008A11831206
:101410003A218A158316061483120618142A831695
:1014200006148312061C0F2A162ABB298316861758
:101430008312861FB70A3708073C0318212A013098
:10144000B7008A11B3248A15FF30BC00BD00831693
:10145000D9013A30D800831239088316DB00831291
:1014600038088316DA008A118312AB228A15370BEB
:101470003E2AA730BD00AB30BC00462AC030BD00BC
:1014800037088A112F208A15F800BC008316D9016D
:101490003A30D800831239088316DB0083123808EB
:1014A0008316DA008A118312AB228A158A11172457
:1014B0008A158316061483120618702A14308316B0
:1014C000D7008A1183123A218A15831606148312D3
:1014D00006186F2A831606148312061C6A2A712ABC
:1014E000162A8A11B3248A158316D601831231086D
:1014F0008316D7008A118312B5208A15013083160E
:10150000D600831232088316D7008A118312B520C1
:101510008A1502308316D600831233088316D7004B
:101520008A118312B5208A1503308316D6008312E0
:1015300037088316D7008A118312B5208A15043024
:101540008316D600831234088316D7008A118312BB
:10155000B5208A1505308316D60083123508831608
:10156000D7008A118312B5208A1506308316D6005B
:10157000831236088316D7008A118312B5208A1584
:10158000B9011E30B800C8308316D7008A11831203
:101590003A218A1583165508123C0318A12BFF3AED
:1015A000031DD62A5408883C0318A12B5508273C54
:1015B000031CA12B031DE02A5408103C031CA12B83
:1015C0008312B9010F30B800B01FE82A0030E92AB1
:1015D0000130CC003008B01FEF2A3008003CCD00AD
:1015E000831686178312861FB00AB01BFD2A3008A7
:1015F000133C0318FD2AEC30B000B01F012B003063
:10160000022B0130CC003008B01F082B3008003C02
:10161000CD00FF30C700C800C9008316D9013A3099
:10162000D800831239088316DB008312380883162A
:10163000DA008A118312AB228A154D088316D7006F
:101640000A30D8008A1183129C248A1577088A11DF
:101650002F208A15F800C7004D088316D7000A30DE
:10166000D8008A1183129C248A1578088A112F20A9
:101670008A15F800C800CC08031D412BBF30C900F3
:10168000432BFF30C9008316D9013A30D8008312AA
:1016900039088316DB00831238088316DA008A11B2
:1016A0008312AB228A1583160614831206186A2B3E
:1016B00014308316D7008A1183123A218A158316B3
:1016C000061483120618692B831606148312061C4F
:1016D000642B6B2BF02A0B08F7008B13FE300317DB
:1016E0008D0003134C0803178C0083168C130C1504
:1016F00055308D00AA308D008C148C187D2B0C1168
:101700007708831203138B040B08F7008B13FF3049
:1017100003178D0003134D0803178C0083168C13D9
:101720000C1555308D00AA308D008C148C18962B1A
:101730000C117708831203138B04B9011E30B80013
:1017400083165508263C0318F72BFF3A031DAC2BD4
:101750005408103C0318F72B01308312CB064B1CA6
:10176000E32B831608138312081702308316D60062
:10177000FA30D7008A1183123A218A158316D60BC4
:10178000B82B08138312081302308316D600FA30E0
:10179000D7008A1183123A218A158316D60BC72BDC
:1017A00008138312081702308316D600FA30D700C8
:1017B0008A1183123A218A158316D60BD62B081369
:1017C00083120813F62B83160813831208170830A8
:1017D0008316D600FA30D7008A1183123A218A156F
:1017E0008316D60BEA2B0813831208138316831271
:0617F0008A110A12E42F29
:0443FC0000000300BA
:04400E00E42FFF3F5D
:00000001FF
;PIC16F887
;CRC=18A0  CREATED="16-Feb-26 02:09"
