:020000040000FA
:1000000008308A00002800000A108A100A118207AE
:10001000C034F934A434B034993492348234F8348E
:10002000803490340A108A100A1182070134023495
:100030000434083410342034403480340134023421
:100040000434083410342034403480340830F8004C
:1000500000008711A0112008831687000000F20D10
:1000600083120712031C3A282016200883168700E3
:100070003E28831220122008831687000000831276
:10008000A0152008831687008312871D4528F80BCA
:10009000282800008711A01120088316870000007F
:1000A00083122016200883168700000000008312A8
:1000B000A0152008831687008312871D5D28F8018C
:1000C0000000071A78148711A011200883168700F2
:1000D000831207122012200883168700831208005B
:1000E000201620088316870000008312A015200820
:1000F000831687000000831207122012200883163F
:100100008700000083128711A01120088316870042
:10011000D030F200831226207008F20026207108E9
:10012000F200262020122008831687000000831288
:10013000A0152008831687008312871D9D280000C4
:10014000A1280000201620088316870000008312D3
:100150000800A101A2010830A3000430A700A400F8
:100160000230A5002630A600F0012108F100702021
:100170000130F0002208F10070200230F000230866
:10018000F10070200330F0002708F10070200430E7
:10019000F0002408F10070200530F0002508F1007F
:1001A00070200630F0002608F1007020080073303F
:1001B0008400831300080319EA280230F800F701CD
:1001C000F70BE028F80BDF289730F700F70BE6284D
:1001D000800BDD2808000830F3007708F4002016B3
:1001E00020088316870000008312A01520088316BC
:1001F00087008312871DFA28071A0314071E0310AD
:10020000F80D0000A01120088316870083128711C3
:10021000F30BEF28201620088316870000008312B6
:100220000712740803191929201220088316870061
:1002300083120000A0152008831687008312871DF3
:100240001F2900008711A0112008831687000000D5
:1002500083120712201220088316870083120800D9
:10026000201620088316870000008312A01520089E
:1002700083168700000083120712201220088316BD
:100280008700000083128711A011200883168700C1
:10029000D030F20083122620F201262020162008FA
:1002A0008316870000008312A0152008831687009C
:1002B00000008312871D5A29071220122008831676
:1002C0008700000083128711A01120088316870081
:1002D000D130F200831226200130F700EB2078089D
:1002E000A1000130F700EB207808A2000130F700F0
:1002F000EB207808A3000130F700EB207808A70076
:100300000130F700EB207808A4000130F700EB2063
:100310007808A500F701EB207808A6002012200835
:100320008316870000008312A0152008831687001B
:100330008312871D992900009D290000201620089E
:100340008316870000008312240EF7000F30F70594
:1003500077080420F800C10024080F3904207F39F1
:10036000C200250EF7000F30F70577080420F800CB
:10037000C30025080F3904207F39C400A430C5000C
:10038000C030C600260EF7000F30F70577080420AE
:10039000F800C70026080F390420F800C800A70895
:1003A000031DD729C630CF00C830D000DD29C030AA
:1003B000CF0027080420F800D00021080F390420BE
:1003C000F800B100210EF7000F30F7057708042080
:1003D000F800B20022080F3904207F39B300220E42
:1003E000F7000F30F70577080420F800B400230861
:1003F0000F3904207F39B500230EF7000F30F705C1
:1004000077080420F800B600FF30B700B8000800F5
:100410008316AE012E08073C031C2B2AAD1F122A9F
:100420000130132A0030003A031D1A2A83120810E3
:100430001C2A8316831208148316081008118312CD
:100440000811222A83160811831208150310831637
:10045000AD0DAE0A0A2A831208007308FA0072086A
:100460000319F303F203F4007A08F500F408031DFE
:100470003C2AF50803190A2B7008F8007108FA00E5
:100480007808F4007A08F5007508FC007408FB0091
:10049000F60176080F3C031C092B7608073C031C69
:1004A000862A76087B07840083137C18831700084C
:1004B0008316A701A601A501A400A700A401A50118
:1004C000A601760883121220F8008316AC01AB0156
:1004D000AA017808A9002A08AC002908AB00A901E4
:1004E000AA01F7012A08F8002B08F9002C08FA00E5
:1004F00077082404A00078082504A10079082604C0
:10050000A2007A082704A300B12A831276087B0789
:10051000840083137C18831700088316A701A601A3
:10052000A501A4002608A7002508A6002408A50008
:10053000A401760883121220F8008316AC01AB01E7
:10054000AA017808A900F700F90177082404A0009F
:100550002A082504A10079082604A2002C082704F3
:10056000A3002308A8002208A7002108A60020084D
:10057000A500F801F901FA012508AC00B101F80164
:10058000F901FA012608AB00B001B101F801F90147
:10059000FA012708AA00AF01B001B101F801F90181
:1005A000FA012808A9002908AD0083120822831641
:1005B0002A08AD008312082283162B08AD0083128F
:1005C000082283162C08AD00831208228316081215
:1005D00083120812EB2A83160812831208160230BF
:1005E0008316A400F830A6000830A602031C042BD2
:1005F000A630840083130310800C00080319042B19
:10060000022B0000800B012BA40BF22AF60A8312A6
:10061000492A2D2A0800F701F801740803107518FB
:10062000F707F70CF80CF518F707F70CF80C751925
:10063000F707F70CF80CF519F707F70CF80C751A13
:10064000F707F70CF80CF51AF707F70CF80C751B01
:10065000F707F70CF80CF51BF707F70CF80C080078
:10066000210EF7000F30F7057708F300F4000A3089
:10067000F5000B2321080F397807A100220EF7009F
:100680000F30F7057708F300F4000A30F5000B236C
:1006900022080F397807A200230EF7000F30F70564
:1006A0007708F300F4000A30F5000B2323080F3914
:1006B0007807A300240EF7000F30F7057708F30042
:1006C000F4000A30F5000B2324080F397807A40042
:1006D000250EF7000F30F7057708F300F4000A3015
:1006E000F5000B2325080F397807A500260EF70023
:1006F0000F30F7057708F300F4000A30F5000B23FC
:1007000026080F397807A60008007408F80173025C
:1007100003188D2B7308F700992BF7010830F500AB
:10072000F30DF70D740877020318F700F80DF50BB9
:10073000902B08002108F3000A30F4008523780E7E
:10074000F200F030F2052108F3000A30F4008523AE
:1007500077087207A1002208F3000A30F40085230D
:10076000780EF200F030F2052208F3000A30F400AF
:10077000852377087207A2002308F3000A30F400EB
:100780008523780EF200F030F2052308F3000A30DA
:10079000F400852377087207A3002408F3000A30C9
:1007A000F4008523780EF200F030F2052408F300FF
:1007B0000A30F400852377087207A4002508F300A7
:1007C0000A30F4008523780EF200F030F205250897
:1007D000F3000A30F400852377087207A500260885
:1007E000F3000A30F4008523780EF200F030F205B1
:1007F0002608F3000A30F400852377087207A60064
:100800000800EE080319692F3021EF016F08073C3B
:10081000031C252C29306F07F800FA010318FA0A87
:100820007808F00007306B07F8006F087802393E4F
:10083000840083130008F2007008840083137A1880
:10084000831772088000EF0A062CF1012930F000AE
:100850006D08F3006C08F2002D22281C582D302161
:100860003023A10803193F2C210B372C3F2C2108E2
:10087000033C03193F2C2108043C031DAE2CA208A5
:10088000031DAE2C23080C3C03194A2C2308123CF0
:10089000031DAE2CF0017008043C031CAE2C02308A
:1008A000F200FA30F300D720F20B512C831605101A
:1008B000831205148316851083128514831605117F
:1008C000831205158316851183128515831605126B
:1008D0008312051683168512831285168316051357
:1008E0008312051783168513831285178316081341
:1008F000831208170230F200FA30F300D720F20B0F
:100900007C2C831605108312051083168510831224
:100910008510831605118312051183168511831224
:100920008511831605128312051283168512831210
:1009300085128316051383120513831685138312FC
:10094000851383160813831208130230F200FA305D
:10095000F300D720F20BA72CF00A4B2CA1080319A7
:10096000BC2C210BB42CBC2C2108033C0319BC2C3F
:100970002108043C031D332DA208031D332D230839
:10098000053C0318C72C23080B3C0318CF2C230865
:100990000C3C0318332D2308113C031C332DF101AB
:1009A0007108023C031C332D0230F200FA30F300D0
:1009B000D720F20BD62C831605108312051483164C
:1009C000851083128514831605118312051583166D
:1009D0008511831285158316051283120516831659
:1009E0008512831285168316051383120517831645
:1009F0008513831285178316081383120817023094
:100A0000F200FA30F300D720F20B012D8316051007
:100A10008312051083168510831285108316051125
:100A20008312051183168511831285118316051211
:100A300083120512831685128312851283160513FD
:100A400083120513831685138312851383160813E7
:100A5000831208130230F200FA30F300D720F20BB1
:100A60002C2DF10AD02C9A23831608138312081315
:100A700083160510831205148316851083128514BE
:100A800083160511831205158316851183128515AA
:100A90008316051283120516831685128312851696
:100AA0008316051383120517831685138312851782
:100AB000831686178312861BC52D1430F300D720AA
:100AC000831686178312861BC52D831686178312FD
:100AD000861F652D0130A806281CA62D83168501CA
:100AE000FF30831285008316081383120817023023
:100AF000F000FA30F300D720F00B792D8316850132
:100B00008312850183160813831208130230F00044
:100B1000FA30F300D720F00B882D83168501FF30C3
:100B20008312850083160813831208170230F00021
:100B3000FA30F300D720F00B982D8316850183122D
:100B400085018316081383120813BE2D83168501B1
:100B5000FF308312850083160813831208170230B2
:100B6000F000FA30F300D720F00BB12D8316850189
:100B70008312850183160813831208130230F000D4
:100B8000FA30F300D720F00BC02D83160614831221
:100B90000618672F3023A101831686178312861F3C
:100BA000A20A22083B3C031CA2019A23FF30B30097
:100BB000B400F1012930F000F3011E30F2002D22C3
:100BC00022080F3904207F39B300220EF7000F30BE
:100BD000F70577080420F800B400F1012930F0008F
:100BE000F3011E30F2002D223023831606148312E7
:100BF0000618082E1430F300D7208316061483122B
:100C00000618072E831606148312061C022E092EC0
:100C1000CC2D831686178312861FA30A2308173C40
:100C2000031CA3019A23FF30B500B600F10129305F
:100C3000F000F3011E30F2002D2223080F390420AA
:100C40007F39B500230EF7000F30F7057708042031
:100C5000F800B600F1012930F000F3011E30F20077
:100C60002D2230238316061483120618452E1430C5
:100C7000F300D7208316061483120618442E831619
:100C800006148312061C3F2E462E092E8316861745
:100C90008312861FA40A24081F3C0318512E01301A
:100CA000A4009A23FF30AF00B000F1012930F0001A
:100CB000F3011E30F2002D2224080F3904207F3961
:100CC000AF00240EF7000F30F70577080420F80076
:100CD000B000F1012930F000F3011E30F2002D22A6
:100CE00030238316061483120618842E1430F30062
:100CF000D7208316061483120618832E8316061433
:100D00008312061C7E2E852E462E8316861783128E
:100D1000861FA50A25080C3C0318902E0130A5005B
:100D20009A23FF30AD00AE00F1012930F000F3014D
:100D30001E30F2002D2225080F3904207F39AD0026
:100D4000250EF7000F30F70577080420F800AE00F5
:100D5000F1012930F000F3011E30F2002D22302382
:100D60008316061483120618C32E1430F300D720FE
:100D70008316061483120618C22E831606148312D5
:100D8000061CBD2EC42E852E831686178312861F41
:100D9000A60A2608323C031CA6019A23FF30A900AC
:100DA000AA00F1012930F000F3011E30F2002D22DB
:100DB00026080F390420F800A900260EF7000F308E
:100DC000F70577080420F800AA00F1012930F000A7
:100DD000F3011E30F2002D223023831606148312F5
:100DE0000618002F1430F300D72083160614831240
:100DF0000618FF2E831606148312061CFA2E012FE6
:100E0000C42E831686178312861FA70A2708073C5D
:100E100003180C2F0130A7009A23FF30AB00AC0061
:100E2000F1012930F000F3011E30F2002D22A70855
:100E3000031D1F2FC830AB00C630AC00252FC030BB
:100E4000AC0027080420F800AB00F1012930F000C5
:100E5000F3011E30F2002D22302383160614831274
:100E60000618402F1430F300D7208316061483127F
:100E700006183F2F831606148312061C3A2F412FA3
:100E8000012F9A23F0012108F10070200130F000B9
:100E90002208F10070200230F0002308F1007020D9
:100EA0000330F0002708F10070200430F00024081F
:100EB000F10070200530F0002508F10070200630A8
:100EC000F0002608F1007020C830F300D720EE03B0
:100ED000012C8A150A12C428FF3FFF3FFF3FFF3F46
:100EE000FF3FFF3FFF3FFF3FFF3FFF3FFF3FFF3F12
:100EF000FF3FFF3FFF3FFF3FFF3FFF3FFF3FFF3F02
:100F0000FF3FFF3FFF3FFF3FFF3FFF3FFF3FFF3FF1
:100F1000FF3FFF3FFF3FFF3FFF3FFF3FFF3FFF3FE1
:100F2000FF3FFF3FFF3FFF3FFF3FFF3FFF3FFF3FD1
:100F3000FF3FFF3FFF3FFF3FFF3FFF3FFF3FFF3FC1
:100F4000FF3FFF3FFF3FFF3FFF3FFF3FFF3FFF3FB1
:100F5000FF3FFF3FFF3FFF3FFF3FFF3FFF3FFF3FA1
:100F6000FF3FFF3FFF3FFF3FFF3FFF3FFF3FFF3F91
:100F7000FF3FFF3FFF3FFF3FFF3FFF3FFF3FFF3F81
:100F8000FF3FFF3FFF3FFF3FFF3FFF3FFF3FFF3F71
:100F9000FF3FFF3FFF3FFF3FFF3FFF3FFF3FFF3F61
:100FA000FF3FFF3FFF3FFF3FFF3FFF3FFF3FFF3F51
:100FB000FF3FFF3FFF3FFF3FFF3FFF3FFF3FFF3F41
:100FC000FF3FFF3FFF3FFF3FFF3FFF3FFF3FFF3F31
:100FD000FF3FFF3FFF3FFF3FFF3FFF3FFF3FFF3F21
:100FE000FF3FFF3FFF3FFF3FFF3FFF3FFF3FFF3F11
:100FF000FF3FFF3FFF3FFF3FFF3FFF3FFF3FFF3F01
:1010000003081F398300713083168F000F08FF30EB
:101010008312A0002810EB01831603170908C039BA
:10102000890003131F129F120030031788008312D8
:101030008701880189018313FF300313A900AA00E7
:10104000AB00AC00AD00AE00AF00B000B100B2002C
:10105000B300B400B500B600B700B800B900BA00DC
:10106000BB00BC00BD00BE00BF00C000C100C2008C
:10107000C300C400C500C600C700C800C900CA003C
:101080008730CB008B30CC00E330CD00FF30CE007A
:10109000C630CF00C830D000FF30D100D20087303A
:1010A000D300AF30D400A330D500AB30D600FF3032
:1010B000D700A130D800FB30D900AB30DA008B303C
:1010C000DB00FF30DC008730DD008B30DE00E330FA
:1010D000DF00A330E000AB30E1009030E200FF30F1
:1010E000E300E400E500E600E700E800E900EA00CC
:1010F000003083168500FF3086000030880008101D
:10110000831208108316081183120811831608121F
:101110008312081683160510831205148316851092
:101120008312851483160511831205158316851104
:1011300083128515831605128312051683168512F0
:1011400083128516831605138312051783168513DC
:101150008312851783160813831208138A11A92096
:101160008A155030EC00FA30F3008A11D7208A1526
:10117000EC0BB3288A11A9208A15ED011E30EC0072
:101180000130EE008A11012C8A15EB0A6B082A3C0B
:10119000031CEB01BD286300FF3FFF3FFF3FFF3F04
:1011A000FF3FFF3FFF3FFF3FFF3FFF3FFF3FFF3F4F
:1011B000FF3FFF3FFF3FFF3FFF3FFF3FFF3FFF3F3F
:1011C000FF3FFF3FFF3FFF3FFF3FFF3FFF3FFF3F2F
:1011D000FF3FFF3FFF3FFF3FFF3FFF3FFF3FFF3F1F
:04400E00E42FFF3F5D
:08400000FF3FFF3FFF3FFF3FC0
:00000001FF
