:1000000005308A00962D00000A108A100A11820716
:10001000C034F934A434B034993492348234F8348E
:10002000803490340A108A100A1182070134023495
:100030000434083410342034403480340134023421
:100040000434083410342034403480340830F8004C
:1000500000008711A0112008831687000000F10D11
:1000600083120712031C3A282016200883168700E3
:100070003E28831220122008831687000000831276
:10008000A0152008831687008312871D4528F80BCA
:10009000282800008711A01120088316870000007F
:1000A00083122016200883168700000000008312A8
:1000B000A0152008831687008312871D5D28F8018C
:1000C0000000071A78148711A011200883168700F2
:1000D000831207122012200883168700831208005B
:1000E0000830F0007708F1002016200883168700FA
:1000F00000008312A0152008831687008312871D35
:100100007F28071A0314071E0310F80D0000A01122
:1001100020088316870083128711F00B742820169D
:100120002008831687000000831207127108031944
:100130009E28201220088316870083120000A01535
:100140002008831687008312871DA42800008711CA
:10015000A0112008831687000000831207122012C6
:10016000200883168700831208008316AA012A0834
:10017000073C031CD828A91FBF280130C028003025
:10018000003A031DC72883120810C928831683125A
:10019000081483160810081183120811CF2883163B
:1001A00008118312081503108316A90DAA0AB7288F
:1001B000831208007208FA0071080319F203F103B0
:1001C000F3007A08F400F308031DE928F408031982
:1001D000B5296F08F8007008FA007808F3007A086B
:1001E000F4007408F6007308F5008316A0012008D7
:1001F0000F3C031CB3292008073C031C32292008AC
:10020000750784008313761883170008A401A301DF
:10021000A201A100A400A101A201A3012008831250
:100220001220F8008316A901A801A7017808A600EA
:100230002708A9002608A800A601A701F70127089A
:10024000F8002808F9002908FA0077082104FB00C3
:1002500078082204FC0079082304FD007A082404AD
:10026000FE005C2920087507840083137618831725
:100270000008A401A301A201A1002308A4002208F0
:10028000A3002108A200A101200883121220F80077
:100290008316A901A801A7017808A600F700F901B3
:1002A00077082104FB0027082204FC0079082304B6
:1002B000FD0029082404FE007E08A4007D08A30098
:1002C0007C08A2007B08A100F801F901FA012108CD
:1002D000A800AD01F801F901FA012208A700AC015C
:1002E000AD01F801F901FA012308A600AB01AC0148
:1002F000AD01F801F901FA012408A5002508A900BB
:100300008312B52083162608A9008312B520831610
:100310002708A9008312B52083162808A900831294
:10032000B520831608128312081296298316081224
:100330008312081602308316A100F830A20008309C
:10034000A202031CAF29A230840083130310800C87
:1003500000080319AF29AD290000800BAC29A10BBF
:100360009D29A00AF7288312DA280800F701F8016E
:10037000710803107218F707F70CF80CF218F7075A
:10038000F70CF80C7219F707F70CF80CF219F707CD
:10039000F70CF80C721AF707F70CF80CF21AF707BB
:1003A000F70CF80C721BF707F70CF80CF21BF707A9
:1003B000F70CF80C0800210EF7000F30F70577084E
:1003C000F000F1000A30F200B62121080F39780759
:1003D000A100220EF7000F30F7057708F000F100BA
:1003E0000A30F200B62122080F397807A200230E46
:1003F000F7000F30F7057708F000F1000A30F2003F
:10040000B62123080F397807A300240EF7000F3018
:10041000F7057708F000F1000A30F200B621240851
:100420000F397807A400250EF7000F30F70577087D
:10043000F000F1000A30F200B62125080F397807E4
:10044000A500260EF7000F30F7057708F000F10041
:100450000A30F200B62126080F397807A6000800F6
:100460007108F80170020318382A7008F700442A4E
:10047000F7010830F200F00DF70D7108770203184C
:10048000F700F80DF20B3B2A08002108F0000A30B3
:10049000F1003022780EEF00F030EF052108F00077
:1004A0000A30F100302277086F07A1002208F0001F
:1004B0000A30F1003022780EEF00F030EF0522080C
:1004C000F0000A30F100302277086F07A2002308FD
:1004D000F0000A30F1003022780EEF00F030EF0526
:1004E0002308F0000A30F100302277086F07A300DC
:1004F0002408F0000A30F1003022780EEF00F030CE
:10050000EF052408F0000A30F100302277086F0769
:10051000A4002508F0000A30F1003022780EEF0028
:10052000F030EF052508F0000A30F100302277089E
:100530006F07A5002608F0000A30F1003022780E7F
:10054000EF00F030EF052608F0000A30F10030220D
:1005500077086F07A60008006F3084008313000837
:100560000319BF2A0230F800F701F70BB52AF80B80
:10057000B42A9730F700F70BBB2A800BB22A080089
:10058000201620088316870000008312A01520087B
:10059000831687000000831207122012200883169A
:1005A0008700000083128711A0112008831687009E
:1005B000D030F100831226206F08F1002620700849
:1005C000F1002620201220088316870000008312E5
:1005D000A0152008831687008312871DED2A0000CE
:1005E000F12A0000201620088316870000008312DD
:1005F0000800ED080319932D2016200883168700A4
:1006000000008312A01520088316870000008312C3
:10061000071220122008831687000000831287111A
:10062000A011200883168700D030F1008312262005
:10063000F10126202016200883168700000083126F
:10064000A01520088316870000008312871D262B23
:1006500007122012200883168700000083128711DA
:10066000A011200883168700D130F10083122620C4
:100670000130F70070207808A1000130F7007020E9
:100680007808A2000130F70070207808A30001303C
:10069000F70070207808A7000130F7007020780874
:1006A000A4000130F70070207808A500F701702041
:1006B0007808A60020122008831687000000831205
:1006C000A0152008831687008312871D652B000064
:1006D000692B000020162008831687000000831273
:1006E000240EF7000F30F70577080420F800C0004B
:1006F00024080F3904207F39C100250EF7000F3080
:10070000F70577080420F800C20025080F390420F7
:100710007F39C300A430C400C030C500260EF700E6
:100720000F30F70577080420F800C60026080F39B7
:100730000420F800C700A708031DA32BC630CE0075
:10074000C830CF00A92BC030CE0027080420F80005
:10075000CF0021080F390420F800B000210EF70067
:100760000F30F70577080420F800B10022080F3990
:1007700004207F39B200220EF7000F30F70577080A
:100780000420F800B30023080F3904207F39B40097
:10079000230EF7000F30F70577080420F800B500A6
:1007A000FF30B600B700EE016E08073C031CF32BC8
:1007B00028306E07F800FA010318FA0A7808EF00EB
:1007C00007306A07F8006E087802383E8400831309
:1007D0000008F1006F08840083137A1883177108EA
:1007E0008000EE0AD42BF0012830EF006C08F200F4
:1007F0006B08F100DA208316061483120618912D77
:10080000DB21A101831606158312061DA20A220808
:100810003B3C031CA2014522FF30B200B300F001B3
:100820002830EF00F201F100DA2022080F3904200D
:100830007F39B200220EF7000F30F7057708042049
:10084000F800B300F0012830EF00F201F100DA20E7
:10085000DB2183160614831206183C2C1430EF009B
:10086000AC2283160614831206183B2C831606143A
:100870008312061C362C3D2C022C8316061583127F
:10088000061DA30A2308173C031CA3014522FF30C1
:10089000B400B500F0012830EF00F201F100DA20D9
:1008A00023080F3904207F39B400230EF7000F30DE
:1008B000F70577080420F800B500F0012830EF00B4
:1008C000F201F100DA20DB218316061483120618E8
:1008D000772C1430EF00AC2283160614831206180E
:1008E000762C831606148312061C712C782C3D2C52
:1008F000831606158312061DA40A24081F3C03183C
:10090000832C0130A4004522FF30AE00AF00F0017F
:100910002830EF00F201F100DA2024080F3904201A
:100920007F39AE00240EF7000F30F705770804205A
:10093000F800AF00F0012830EF00F201F100DA20FA
:10094000DB218316061483120618B42C1430EF0032
:10095000AC228316061483120618B32C83160614D1
:100960008312061CAE2CB52C782C83160615831228
:10097000061DA50A25080C3C0318C02C0130A50053
:100980004522FF30AC00AD00F0012830EF00F2014D
:10099000F100DA2025080F3904207F39AC00250E3C
:1009A000F7000F30F70577080420F800AD00F001DC
:1009B0002830EF00F201F100DA20DB218316061463
:1009C00083120618F12C1430EF00AC2283160614A3
:1009D00083120618F02C831606148312061CEB2CC7
:1009E000F22CB52C831606158312061DA60A2608BE
:1009F000323C031CA6014522FF30A800A900F001EB
:100A00002830EF00F201F100DA2026080F39042027
:100A1000F800A800260EF7000F30F705770804202D
:100A2000F800A900F0012830EF00F201F100DA200F
:100A3000DB2183160614831206182C2D1430EF00C8
:100A4000AC2283160614831206182B2D8316061467
:100A50008312061C262D2D2DF22C831606158312CB
:100A6000061DA70A2708073C0318382D0130A700E8
:100A70004522FF30AA00AB00F0012830EF00F20160
:100A8000F100DA20A708031D4A2DC830AA00C6309D
:100A9000AB00502DC030AB0027080420F800AA009E
:100AA000F0012830EF00F201F100DA20DB2183169B
:100AB0000614831206186A2D1430EF00AC22831638
:100AC000061483120618692D831606148312061C59
:100AD000642D6B2D2D2D4522EF012108F000C02241
:100AE0000130EF002208F000C0220230EF0023089E
:100AF000F000C0220330EF002708F000C0220430CD
:100B0000EF002408F000C0220530EF002508F000B7
:100B1000C0220630EF002608F000C022C830EF00E7
:100B2000AC22ED03F92A8A110A12352E03081F3967
:100B30008300713083168F000F08FF308312A000EE
:100B4000EA01831603170908C039890003131F122D
:100B50009F120030031788008312870188018901E2
:100B60008313FF300313A800A900AA00AB00AC0058
:100B7000AD00AE00AF00B000B100B200B300B400F1
:100B8000B500B600B700B800B900BA00BB00BC00A1
:100B9000BD00BE00BF00C000C100C200C300C40051
:100BA000C500C600C700C800C9008730CA008B3026
:100BB000CB00E330CC00FF30CD00C630CE00C830D3
:100BC000CF00FF30D000D1008730D200AF30D3004B
:100BD000A330D400AB30D500FF30D600A130D70011
:100BE000FB30D800AB30D9008B30DA00FF30DB00AF
:100BF0008730DC008B30DD00E330DE00A330DF0027
:100C0000AB30E0009030E100FF30E200E300E400B0
:100C1000E500E600E700E800E90000308316850003
:100C2000FF308600003088000810831208108316F9
:100C300008118312081183160812831208168316EE
:100C400005108312051483160511831205158316EA
:100C50000512831205168316051383120517EC017E
:100C60002830EB000130ED00F92AEA0A6A082A3C34
:080C7000031CEA012F2E6300B2
:04400E00E42FFF3F5D
:00000001FF
;PIC16F887
;CRC=7392  CREATED="03-Nov-25 12:20"
